{
  "_format": "hh-sol-artifact-1",
  "contractName": "Marketplace",
  "sourceName": "contracts/Marketplace.sol",
  "abi": [
    {
      "anonymous": false,
      "inputs": [
        {
          "indexed": true,
          "internalType": "address",
          "name": "tokenAddress",
          "type": "address"
        },
        {
          "indexed": true,
          "internalType": "uint256",
          "name": "tokenId",
          "type": "uint256"
        },
        {
          "indexed": false,
          "internalType": "uint256",
          "name": "minBid",
          "type": "uint256"
        },
        {
          "indexed": false,
          "internalType": "uint256",
          "name": "endTime",
          "type": "uint256"
        }
      ],
      "name": "AuctionCreated",
      "type": "event"
    },
    {
      "anonymous": false,
      "inputs": [
        {
          "indexed": true,
          "internalType": "address",
          "name": "tokenAddress",
          "type": "address"
        },
        {
          "indexed": true,
          "internalType": "uint256",
          "name": "tokenId",
          "type": "uint256"
        },
        {
          "indexed": false,
          "internalType": "address",
          "name": "winner",
          "type": "address"
        },
        {
          "indexed": false,
          "internalType": "uint256",
          "name": "amount",
          "type": "uint256"
        }
      ],
      "name": "AuctionEnded",
      "type": "event"
    },
    {
      "anonymous": false,
      "inputs": [
        {
          "indexed": true,
          "internalType": "address",
          "name": "tokenAddress",
          "type": "address"
        },
        {
          "indexed": true,
          "internalType": "uint256",
          "name": "tokenId",
          "type": "uint256"
        },
        {
          "indexed": true,
          "internalType": "address",
          "name": "bidder",
          "type": "address"
        },
        {
          "indexed": false,
          "internalType": "uint256",
          "name": "amount",
          "type": "uint256"
        }
      ],
      "name": "BidPlaced",
      "type": "event"
    },
    {
      "anonymous": false,
      "inputs": [
        {
          "indexed": true,
          "internalType": "address",
          "name": "tokenAddress",
          "type": "address"
        },
        {
          "indexed": true,
          "internalType": "uint256",
          "name": "tokenId",
          "type": "uint256"
        },
        {
          "indexed": true,
          "internalType": "address",
          "name": "buyer",
          "type": "address"
        },
        {
          "indexed": false,
          "internalType": "uint256",
          "name": "price",
          "type": "uint256"
        }
      ],
      "name": "ItemBought",
      "type": "event"
    },
    {
      "anonymous": false,
      "inputs": [
        {
          "indexed": true,
          "internalType": "address",
          "name": "tokenAddress",
          "type": "address"
        },
        {
          "indexed": true,
          "internalType": "uint256",
          "name": "tokenId",
          "type": "uint256"
        },
        {
          "indexed": true,
          "internalType": "address",
          "name": "seller",
          "type": "address"
        }
      ],
      "name": "ItemCanceled",
      "type": "event"
    },
    {
      "anonymous": false,
      "inputs": [
        {
          "indexed": true,
          "internalType": "address",
          "name": "tokenAddress",
          "type": "address"
        },
        {
          "indexed": true,
          "internalType": "uint256",
          "name": "tokenId",
          "type": "uint256"
        },
        {
          "indexed": true,
          "internalType": "address",
          "name": "seller",
          "type": "address"
        },
        {
          "indexed": false,
          "internalType": "uint256",
          "name": "price",
          "type": "uint256"
        }
      ],
      "name": "ItemListed",
      "type": "event"
    },
    {
      "inputs": [
        {
          "internalType": "address",
          "name": "",
          "type": "address"
        },
        {
          "internalType": "uint256",
          "name": "",
          "type": "uint256"
        }
      ],
      "name": "auctions",
      "outputs": [
        {
          "internalType": "address",
          "name": "seller",
          "type": "address"
        },
        {
          "internalType": "uint256",
          "name": "minBid",
          "type": "uint256"
        },
        {
          "internalType": "uint256",
          "name": "highestBid",
          "type": "uint256"
        },
        {
          "internalType": "address",
          "name": "highestBidder",
          "type": "address"
        },
        {
          "internalType": "uint256",
          "name": "endTime",
          "type": "uint256"
        },
        {
          "internalType": "bool",
          "name": "ended",
          "type": "bool"
        }
      ],
      "stateMutability": "view",
      "type": "function"
    },
    {
      "inputs": [
        {
          "internalType": "address",
          "name": "tokenAddress",
          "type": "address"
        },
        {
          "internalType": "uint256",
          "name": "tokenId",
          "type": "uint256"
        }
      ],
      "name": "bid",
      "outputs": [],
      "stateMutability": "payable",
      "type": "function"
    },
    {
      "inputs": [
        {
          "internalType": "address",
          "name": "tokenAddress",
          "type": "address"
        },
        {
          "internalType": "uint256",
          "name": "tokenId",
          "type": "uint256"
        }
      ],
      "name": "buyItem",
      "outputs": [],
      "stateMutability": "payable",
      "type": "function"
    },
    {
      "inputs": [
        {
          "internalType": "address",
          "name": "tokenAddress",
          "type": "address"
        },
        {
          "internalType": "uint256",
          "name": "tokenId",
          "type": "uint256"
        }
      ],
      "name": "cancelListing",
      "outputs": [],
      "stateMutability": "nonpayable",
      "type": "function"
    },
    {
      "inputs": [
        {
          "internalType": "address",
          "name": "tokenAddress",
          "type": "address"
        },
        {
          "internalType": "uint256",
          "name": "tokenId",
          "type": "uint256"
        },
        {
          "internalType": "uint256",
          "name": "minBid",
          "type": "uint256"
        },
        {
          "internalType": "uint256",
          "name": "duration",
          "type": "uint256"
        }
      ],
      "name": "createAuction",
      "outputs": [],
      "stateMutability": "nonpayable",
      "type": "function"
    },
    {
      "inputs": [
        {
          "internalType": "address",
          "name": "tokenAddress",
          "type": "address"
        },
        {
          "internalType": "uint256",
          "name": "tokenId",
          "type": "uint256"
        }
      ],
      "name": "endAuction",
      "outputs": [],
      "stateMutability": "nonpayable",
      "type": "function"
    },
    {
      "inputs": [
        {
          "internalType": "address",
          "name": "tokenAddress",
          "type": "address"
        },
        {
          "internalType": "uint256",
          "name": "tokenId",
          "type": "uint256"
        }
      ],
      "name": "getListing",
      "outputs": [
        {
          "components": [
            {
              "internalType": "uint256",
              "name": "price",
              "type": "uint256"
            },
            {
              "internalType": "address",
              "name": "seller",
              "type": "address"
            }
          ],
          "internalType": "struct Marketplace.Listing",
          "name": "",
          "type": "tuple"
        }
      ],
      "stateMutability": "view",
      "type": "function"
    },
    {
      "inputs": [
        {
          "internalType": "address",
          "name": "tokenAddress",
          "type": "address"
        },
        {
          "internalType": "uint256",
          "name": "tokenId",
          "type": "uint256"
        },
        {
          "internalType": "uint256",
          "name": "price",
          "type": "uint256"
        }
      ],
      "name": "listItem",
      "outputs": [],
      "stateMutability": "nonpayable",
      "type": "function"
    },
    {
      "inputs": [
        {
          "internalType": "address",
          "name": "",
          "type": "address"
        },
        {
          "internalType": "uint256",
          "name": "",
          "type": "uint256"
        }
      ],
      "name": "listings",
      "outputs": [
        {
          "internalType": "uint256",
          "name": "price",
          "type": "uint256"
        },
        {
          "internalType": "address",
          "name": "seller",
          "type": "address"
        }
      ],
      "stateMutability": "view",
      "type": "function"
    }
  ],
  "bytecode": "0x6080604052348015600f57600080fd5b50612a988061001f6000396000f3fe6080604052600436106100855760003560e01c806388700d1c1161005957806388700d1c1461014f57806388cedbc41461018c57806389bfd38f146101b55780639f37092a146101de578063b2ddee06146101fa57610085565b806207df301461008a57806344f91c1e146100c857806359d667a51461010a57806361beb1d714610126575b600080fd5b34801561009657600080fd5b506100b160048036038101906100ac9190611e3e565b610223565b6040516100bf929190611e9c565b60405180910390f35b3480156100d457600080fd5b506100ef60048036038101906100ea9190611e3e565b610274565b60405161010196959493929190611ee0565b60405180910390f35b610124600480360381019061011f9190611e3e565b61030a565b005b34801561013257600080fd5b5061014d60048036038101906101489190611f41565b6105ff565b005b34801561015b57600080fd5b5061017660048036038101906101719190611e3e565b610919565b6040516101839190611ff5565b60405180910390f35b34801561019857600080fd5b506101b360048036038101906101ae9190611e3e565b6109e3565b005b3480156101c157600080fd5b506101dc60048036038101906101d79190612010565b610fa5565b005b6101f860048036038101906101f39190611e3e565b6113af565b005b34801561020657600080fd5b50610221600480360381019061021c9190611e3e565b611993565b005b6000602052816000526040600020602052806000526040600020600091509150508060000154908060010160009054906101000a900473ffffffffffffffffffffffffffffffffffffffff16905082565b6001602052816000526040600020602052806000526040600020600091509150508060000160009054906101000a900473ffffffffffffffffffffffffffffffffffffffff16908060010154908060020154908060030160009054906101000a900473ffffffffffffffffffffffffffffffffffffffff16908060040154908060050160009054906101000a900460ff16905086565b600260009054906101000a900460ff161561035a576040517f08c379a0000000000000000000000000000000000000000000000000000000008152600401610351906120c0565b60405180910390fd5b6001600260006101000a81548160ff0219169083151502179055506000600160008473ffffffffffffffffffffffffffffffffffffffff1673ffffffffffffffffffffffffffffffffffffffff168152602001908152602001600020600083815260200190815260200160002090508060040154421061040f576040517f08c379a00000000000000000000000000000000000000000000000000000000081526004016104069061212c565b60405180910390fd5b806001015434101580156104265750806002015434115b610465576040517f08c379a000000000000000000000000000000000000000000000000000000000815260040161045c90612198565b60405180910390fd5b600073ffffffffffffffffffffffffffffffffffffffff168160030160009054906101000a900473ffffffffffffffffffffffffffffffffffffffff1673ffffffffffffffffffffffffffffffffffffffff161461052d578060030160009054906101000a900473ffffffffffffffffffffffffffffffffffffffff1673ffffffffffffffffffffffffffffffffffffffff166108fc82600201549081150290604051600060405180830381858888f1935050505015801561052b573d6000803e3d6000fd5b505b348160020181905550338160030160006101000a81548173ffffffffffffffffffffffffffffffffffffffff021916908373ffffffffffffffffffffffffffffffffffffffff1602179055503373ffffffffffffffffffffffffffffffffffffffff16828473ffffffffffffffffffffffffffffffffffffffff167f0158f5674dc243762459b88cfc91b10d2d1ef9d40821cca978c2b680aa444682346040516105d791906121b8565b60405180910390a4506000600260006101000a81548160ff0219169083151502179055505050565b60008490503373ffffffffffffffffffffffffffffffffffffffff168173ffffffffffffffffffffffffffffffffffffffff16636352211e866040518263ffffffff1660e01b815260040161065491906121b8565b602060405180830381865afa158015610671573d6000803e3d6000fd5b505050506040513d601f19601f8201168201806040525081019061069591906121e8565b73ffffffffffffffffffffffffffffffffffffffff16146106eb576040517f08c379a00000000000000000000000000000000000000000000000000000000081526004016106e290612261565b60405180910390fd5b6000821161072e576040517f08c379a0000000000000000000000000000000000000000000000000000000008152600401610725906122cd565b60405180910390fd5b6040518060c001604052803373ffffffffffffffffffffffffffffffffffffffff16815260200184815260200160008152602001600073ffffffffffffffffffffffffffffffffffffffff168152602001834261078b919061231c565b815260200160001515815250600160008773ffffffffffffffffffffffffffffffffffffffff1673ffffffffffffffffffffffffffffffffffffffff168152602001908152602001600020600086815260200190815260200160002060008201518160000160006101000a81548173ffffffffffffffffffffffffffffffffffffffff021916908373ffffffffffffffffffffffffffffffffffffffff160217905550602082015181600101556040820151816002015560608201518160030160006101000a81548173ffffffffffffffffffffffffffffffffffffffff021916908373ffffffffffffffffffffffffffffffffffffffff1602179055506080820151816004015560a08201518160050160006101000a81548160ff021916908315150217905550905050838573ffffffffffffffffffffffffffffffffffffffff167fbfc2001685f147773956c30c745f1b33e40df1ad4c1084b4d39c7c41bb7f66858585426108fc919061231c565b60405161090a929190612350565b60405180910390a35050505050565b610921611d6b565b6000808473ffffffffffffffffffffffffffffffffffffffff1673ffffffffffffffffffffffffffffffffffffffff1681526020019081526020016000206000838152602001908152602001600020604051806040016040529081600082015481526020016001820160009054906101000a900473ffffffffffffffffffffffffffffffffffffffff1673ffffffffffffffffffffffffffffffffffffffff1673ffffffffffffffffffffffffffffffffffffffff1681525050905092915050565b600260009054906101000a900460ff1615610a33576040517f08c379a0000000000000000000000000000000000000000000000000000000008152600401610a2a906120c0565b60405180910390fd5b6001600260006101000a81548160ff0219169083151502179055506000600160008473ffffffffffffffffffffffffffffffffffffffff1673ffffffffffffffffffffffffffffffffffffffff168152602001908152602001600020600083815260200190815260200160002090508060040154421015610ae9576040517f08c379a0000000000000000000000000000000000000000000000000000000008152600401610ae0906123c5565b60405180910390fd5b8060050160009054906101000a900460ff1615610b3b576040517f08c379a0000000000000000000000000000000000000000000000000000000008152600401610b3290612431565b60405180910390fd5b60018160050160006101000a81548160ff021916908315150217905550600073ffffffffffffffffffffffffffffffffffffffff168160030160009054906101000a900473ffffffffffffffffffffffffffffffffffffffff1673ffffffffffffffffffffffffffffffffffffffff1614610f0c578273ffffffffffffffffffffffffffffffffffffffff166342842e0e8260000160009054906101000a900473ffffffffffffffffffffffffffffffffffffffff168360030160009054906101000a900473ffffffffffffffffffffffffffffffffffffffff16856040518463ffffffff1660e01b8152600401610c3593929190612451565b600060405180830381600087803b158015610c4f57600080fd5b505af1158015610c63573d6000803e3d6000fd5b505050506000808473ffffffffffffffffffffffffffffffffffffffff166301ffc9a77f2a55205a000000000000000000000000000000000000000000000000000000006040518263ffffffff1660e01b8152600401610cc391906124c3565b602060405180830381865afa158015610ce0573d6000803e3d6000fd5b505050506040513d601f19601f82011682018060405250810190610d04919061250a565b15610d91578473ffffffffffffffffffffffffffffffffffffffff16632a55205a8585600201546040518363ffffffff1660e01b8152600401610d48929190612350565b6040805180830381865afa158015610d64573d6000803e3d6000fd5b505050506040513d601f19601f82011682018060405250810190610d88919061254c565b80935081925050505b600082118015610dce5750600073ffffffffffffffffffffffffffffffffffffffff168173ffffffffffffffffffffffffffffffffffffffff1614155b15610e99578073ffffffffffffffffffffffffffffffffffffffff166108fc839081150290604051600060405180830381858888f19350505050158015610e19573d6000803e3d6000fd5b508260000160009054906101000a900473ffffffffffffffffffffffffffffffffffffffff1673ffffffffffffffffffffffffffffffffffffffff166108fc838560020154610e68919061258c565b9081150290604051600060405180830381858888f19350505050158015610e93573d6000803e3d6000fd5b50610f09565b8260000160009054906101000a900473ffffffffffffffffffffffffffffffffffffffff1673ffffffffffffffffffffffffffffffffffffffff166108fc84600201549081150290604051600060405180830381858888f19350505050158015610f07573d6000803e3d6000fd5b505b50505b818373ffffffffffffffffffffffffffffffffffffffff167f4d31a5599cdb48031c1f03259adbd513be468c5735012719a1a9850869b558b18360030160009054906101000a900473ffffffffffffffffffffffffffffffffffffffff168460020154604051610f7d9291906125c0565b60405180910390a3506000600260006101000a81548160ff0219169083151502179055505050565b60008111610fe8576040517f08c379a0000000000000000000000000000000000000000000000000000000008152600401610fdf90612635565b60405180910390fd5b60008390503373ffffffffffffffffffffffffffffffffffffffff168173ffffffffffffffffffffffffffffffffffffffff16636352211e856040518263ffffffff1660e01b815260040161103d91906121b8565b602060405180830381865afa15801561105a573d6000803e3d6000fd5b505050506040513d601f19601f8201168201806040525081019061107e91906121e8565b73ffffffffffffffffffffffffffffffffffffffff16146110d4576040517f08c379a00000000000000000000000000000000000000000000000000000000081526004016110cb906126a1565b60405180910390fd5b3073ffffffffffffffffffffffffffffffffffffffff168173ffffffffffffffffffffffffffffffffffffffff1663081812fc856040518263ffffffff1660e01b815260040161112491906121b8565b602060405180830381865afa158015611141573d6000803e3d6000fd5b505050506040513d601f19601f8201168201806040525081019061116591906121e8565b73ffffffffffffffffffffffffffffffffffffffff1614806111ff57508073ffffffffffffffffffffffffffffffffffffffff1663e985e9c533306040518363ffffffff1660e01b81526004016111bd9291906126c1565b602060405180830381865afa1580156111da573d6000803e3d6000fd5b505050506040513d601f19601f820116820180604052508101906111fe919061250a565b5b61123e576040517f08c379a000000000000000000000000000000000000000000000000000000000815260040161123590612736565b60405180910390fd5b60405180604001604052808381526020013373ffffffffffffffffffffffffffffffffffffffff168152506000808673ffffffffffffffffffffffffffffffffffffffff1673ffffffffffffffffffffffffffffffffffffffff16815260200190815260200160002060008581526020019081526020016000206000820151816000015560208201518160010160006101000a81548173ffffffffffffffffffffffffffffffffffffffff021916908373ffffffffffffffffffffffffffffffffffffffff1602179055509050503373ffffffffffffffffffffffffffffffffffffffff16838573ffffffffffffffffffffffffffffffffffffffff167fb29a3c5d9c9eb8230bd277c54293a0a15e98cd5592a3e0d470fe9ce59fed54f18560405161136a91906121b8565b60405180910390a46113a9604051806060016040528060308152602001612a33603091393385670de0b6b3a7640000866113a49190612785565b611be4565b50505050565b600260009054906101000a900460ff16156113ff576040517f08c379a00000000000000000000000000000000000000000000000000000000081526004016113f6906120c0565b60405180910390fd5b6001600260006101000a81548160ff02191690831515021790555060008060008473ffffffffffffffffffffffffffffffffffffffff1673ffffffffffffffffffffffffffffffffffffffff1681526020019081526020016000206000838152602001908152602001600020604051806040016040529081600082015481526020016001820160009054906101000a900473ffffffffffffffffffffffffffffffffffffffff1673ffffffffffffffffffffffffffffffffffffffff1673ffffffffffffffffffffffffffffffffffffffff16815250509050600081600001511161151f576040517f08c379a000000000000000000000000000000000000000000000000000000000815260040161151690612802565b60405180910390fd5b80600001513414611565576040517f08c379a000000000000000000000000000000000000000000000000000000000815260040161155c9061286e565b60405180910390fd5b6000808473ffffffffffffffffffffffffffffffffffffffff1673ffffffffffffffffffffffffffffffffffffffff16815260200190815260200160002060008381526020019081526020016000206000808201600090556001820160006101000a81549073ffffffffffffffffffffffffffffffffffffffff021916905550508273ffffffffffffffffffffffffffffffffffffffff166342842e0e826020015133856040518463ffffffff1660e01b815260040161162793929190612451565b600060405180830381600087803b15801561164157600080fd5b505af1158015611655573d6000803e3d6000fd5b505050506000808473ffffffffffffffffffffffffffffffffffffffff166301ffc9a77f2a55205a000000000000000000000000000000000000000000000000000000006040518263ffffffff1660e01b81526004016116b591906124c3565b602060405180830381865afa1580156116d2573d6000803e3d6000fd5b505050506040513d601f19601f820116820180604052508101906116f6919061250a565b1561177f578473ffffffffffffffffffffffffffffffffffffffff16632a55205a85346040518363ffffffff1660e01b8152600401611736929190612350565b6040805180830381865afa158015611752573d6000803e3d6000fd5b505050506040513d601f19601f82011682018060405250810190611776919061254c565b80935081925050505b6000821180156117bc5750600073ffffffffffffffffffffffffffffffffffffffff168173ffffffffffffffffffffffffffffffffffffffff1614155b15611863578073ffffffffffffffffffffffffffffffffffffffff166108fc839081150290604051600060405180830381858888f19350505050158015611807573d6000803e3d6000fd5b50826020015173ffffffffffffffffffffffffffffffffffffffff166108fc8334611832919061258c565b9081150290604051600060405180830381858888f1935050505015801561185d573d6000803e3d6000fd5b506118af565b826020015173ffffffffffffffffffffffffffffffffffffffff166108fc349081150290604051600060405180830381858888f193505050501580156118ad573d6000803e3d6000fd5b505b3373ffffffffffffffffffffffffffffffffffffffff16848673ffffffffffffffffffffffffffffffffffffffff167f3e54435e36ae559863863c86ae49ae6974ff464d5ccf01c2aae2254c9131b1a6866000015160405161191191906121b8565b60405180910390a46119716040518060400160405280601881526020017f257320626f7567687420257320666f72202573204554482e00000000000000008152503386670de0b6b3a7640000876000015161196c9190612785565b611be4565b5050506000600260006101000a81548160ff0219169083151502179055505050565b60008060008473ffffffffffffffffffffffffffffffffffffffff1673ffffffffffffffffffffffffffffffffffffffff1681526020019081526020016000206000838152602001908152602001600020604051806040016040529081600082015481526020016001820160009054906101000a900473ffffffffffffffffffffffffffffffffffffffff1673ffffffffffffffffffffffffffffffffffffffff1673ffffffffffffffffffffffffffffffffffffffff168152505090503373ffffffffffffffffffffffffffffffffffffffff16816020015173ffffffffffffffffffffffffffffffffffffffff1614611ac3576040517f08c379a0000000000000000000000000000000000000000000000000000000008152600401611aba906128da565b60405180910390fd5b6000808473ffffffffffffffffffffffffffffffffffffffff1673ffffffffffffffffffffffffffffffffffffffff16815260200190815260200160002060008381526020019081526020016000206000808201600090556001820160006101000a81549073ffffffffffffffffffffffffffffffffffffffff021916905550503373ffffffffffffffffffffffffffffffffffffffff16828473ffffffffffffffffffffffffffffffffffffffff167fc448b641f9d136b2082a1543ddddd8b6f8b86576bc444a187505ea3934bac2f860405160405180910390a4611bdf6040518060400160405280601381526020017f2573206c6973742063616e63656c6564202573000000000000000000000000008152503384611c86565b505050565b611c8084848484604051602401611bfe9493929190612979565b6040516020818303038152906040527ff8f51b1e000000000000000000000000000000000000000000000000000000007bffffffffffffffffffffffffffffffffffffffffffffffffffffffff19166020820180517bffffffffffffffffffffffffffffffffffffffffffffffffffffffff8381831617835250505050611d25565b50505050565b611d20838383604051602401611c9e939291906129c5565b6040516020818303038152906040527f0d26b925000000000000000000000000000000000000000000000000000000007bffffffffffffffffffffffffffffffffffffffffffffffffffffffff19166020820180517bffffffffffffffffffffffffffffffffffffffffffffffffffffffff8381831617835250505050611d25565b505050565b611d3c81611d34611d3f611d60565b63ffffffff16565b50565b60006a636f6e736f6c652e6c6f679050600080835160208501845afa505050565b611d9b819050919050565b604051806040016040528060008152602001600073ffffffffffffffffffffffffffffffffffffffff1681525090565b611da3612a03565b565b600080fd5b600073ffffffffffffffffffffffffffffffffffffffff82169050919050565b6000611dd582611daa565b9050919050565b611de581611dca565b8114611df057600080fd5b50565b600081359050611e0281611ddc565b92915050565b6000819050919050565b611e1b81611e08565b8114611e2657600080fd5b50565b600081359050611e3881611e12565b92915050565b60008060408385031215611e5557611e54611da5565b5b6000611e6385828601611df3565b9250506020611e7485828601611e29565b9150509250929050565b611e8781611e08565b82525050565b611e9681611dca565b82525050565b6000604082019050611eb16000830185611e7e565b611ebe6020830184611e8d565b9392505050565b60008115159050919050565b611eda81611ec5565b82525050565b600060c082019050611ef56000830189611e8d565b611f026020830188611e7e565b611f0f6040830187611e7e565b611f1c6060830186611e8d565b611f296080830185611e7e565b611f3660a0830184611ed1565b979650505050505050565b60008060008060808587031215611f5b57611f5a611da5565b5b6000611f6987828801611df3565b9450506020611f7a87828801611e29565b9350506040611f8b87828801611e29565b9250506060611f9c87828801611e29565b91505092959194509250565b611fb181611e08565b82525050565b611fc081611dca565b82525050565b604082016000820151611fdc6000850182611fa8565b506020820151611fef6020850182611fb7565b50505050565b600060408201905061200a6000830184611fc6565b92915050565b60008060006060848603121561202957612028611da5565b5b600061203786828701611df3565b935050602061204886828701611e29565b925050604061205986828701611e29565b9150509250925092565b600082825260208201905092915050565b7f5265656e7472616e637920646574656374656400000000000000000000000000600082015250565b60006120aa601383612063565b91506120b582612074565b602082019050919050565b600060208201905081810360008301526120d98161209d565b9050919050565b7f41756374696f6e20656e64656400000000000000000000000000000000000000600082015250565b6000612116600d83612063565b9150612121826120e0565b602082019050919050565b6000602082019050818103600083015261214581612109565b9050919050565b7f42696420746f6f206c6f77000000000000000000000000000000000000000000600082015250565b6000612182600b83612063565b915061218d8261214c565b602082019050919050565b600060208201905081810360008301526121b181612175565b9050919050565b60006020820190506121cd6000830184611e7e565b92915050565b6000815190506121e281611ddc565b92915050565b6000602082840312156121fe576121fd611da5565b5b600061220c848285016121d3565b91505092915050565b7f4e6f74206f776e65720000000000000000000000000000000000000000000000600082015250565b600061224b600983612063565b915061225682612215565b602082019050919050565b6000602082019050818103600083015261227a8161223e565b9050919050565b7f496e76616c6964206475726174696f6e00000000000000000000000000000000600082015250565b60006122b7601083612063565b91506122c282612281565b602082019050919050565b600060208201905081810360008301526122e6816122aa565b9050919050565b7f4e487b7100000000000000000000000000000000000000000000000000000000600052601160045260246000fd5b600061232782611e08565b915061233283611e08565b925082820190508082111561234a576123496122ed565b5b92915050565b60006040820190506123656000830185611e7e565b6123726020830184611e7e565b9392505050565b7f41756374696f6e206e6f742079657420656e6465640000000000000000000000600082015250565b60006123af601583612063565b91506123ba82612379565b602082019050919050565b600060208201905081810360008301526123de816123a2565b9050919050565b7f41756374696f6e20616c726561647920656e6465640000000000000000000000600082015250565b600061241b601583612063565b9150612426826123e5565b602082019050919050565b6000602082019050818103600083015261244a8161240e565b9050919050565b60006060820190506124666000830186611e8d565b6124736020830185611e8d565b6124806040830184611e7e565b949350505050565b60007fffffffff0000000000000000000000000000000000000000000000000000000082169050919050565b6124bd81612488565b82525050565b60006020820190506124d860008301846124b4565b92915050565b6124e781611ec5565b81146124f257600080fd5b50565b600081519050612504816124de565b92915050565b6000602082840312156125205761251f611da5565b5b600061252e848285016124f5565b91505092915050565b60008151905061254681611e12565b92915050565b6000806040838503121561256357612562611da5565b5b6000612571858286016121d3565b925050602061258285828601612537565b9150509250929050565b600061259782611e08565b91506125a283611e08565b92508282039050818111156125ba576125b96122ed565b5b92915050565b60006040820190506125d56000830185611e8d565b6125e26020830184611e7e565b9392505050565b7f5072696365206d757374206265203e2030000000000000000000000000000000600082015250565b600061261f601183612063565b915061262a826125e9565b602082019050919050565b6000602082019050818103600083015261264e81612612565b9050919050565b7f4e6f7420746865206f776e657200000000000000000000000000000000000000600082015250565b600061268b600d83612063565b915061269682612655565b602082019050919050565b600060208201905081810360008301526126ba8161267e565b9050919050565b60006040820190506126d66000830185611e8d565b6126e36020830184611e8d565b9392505050565b7f4d61726b6574706c616365206e6f7420617070726f7665640000000000000000600082015250565b6000612720601883612063565b915061272b826126ea565b602082019050919050565b6000602082019050818103600083015261274f81612713565b9050919050565b7f4e487b7100000000000000000000000000000000000000000000000000000000600052601260045260246000fd5b600061279082611e08565b915061279b83611e08565b9250826127ab576127aa612756565b5b828204905092915050565b7f4e4654206e6f7420666f722073616c6500000000000000000000000000000000600082015250565b60006127ec601083612063565b91506127f7826127b6565b602082019050919050565b6000602082019050818103600083015261281b816127df565b9050919050565b7f53656e6420657861637420455448000000000000000000000000000000000000600082015250565b6000612858600e83612063565b915061286382612822565b602082019050919050565b600060208201905081810360008301526128878161284b565b9050919050565b7f4e6f742073656c6c657200000000000000000000000000000000000000000000600082015250565b60006128c4600a83612063565b91506128cf8261288e565b602082019050919050565b600060208201905081810360008301526128f3816128b7565b9050919050565b600081519050919050565b60005b83811015612923578082015181840152602081019050612908565b60008484015250505050565b6000601f19601f8301169050919050565b600061294b826128fa565b6129558185612063565b9350612965818560208601612905565b61296e8161292f565b840191505092915050565b600060808201905081810360008301526129938187612940565b90506129a26020830186611e8d565b6129af6040830185611e7e565b6129bc6060830184611e7e565b95945050505050565b600060608201905081810360008301526129df8186612940565b90506129ee6020830185611e8d565b6129fb6040830184611e7e565b949350505050565b7f4e487b7100000000000000000000000000000000000000000000000000000000600052605160045260246000fdfe2573277320746f6b656e2d25732077617320636f6d706c6574656c79206c697374656420696e746f202573204554482ea26469706673582212205cd36158c7b0bd19a1dc251ecbdd3afdc63143a0483e92072d4a0450c6796b2564736f6c634300081c0033",
  "linkReferences": {},
  "deployedLinkReferences": {}
}