{
  "_format": "hh-sol-artifact-1",
  "contractName": "Marketplace",
  "sourceName": "contracts/Marketplace.sol",
  "abi": [
    {
      "anonymous": false,
      "inputs": [
        {
          "indexed": true,
          "internalType": "address",
          "name": "tokenAddress",
          "type": "address"
        },
        {
          "indexed": true,
          "internalType": "uint256",
          "name": "tokenId",
          "type": "uint256"
        },
        {
          "indexed": false,
          "internalType": "uint256",
          "name": "minBid",
          "type": "uint256"
        },
        {
          "indexed": false,
          "internalType": "uint256",
          "name": "endTime",
          "type": "uint256"
        }
      ],
      "name": "AuctionCreated",
      "type": "event"
    },
    {
      "anonymous": false,
      "inputs": [
        {
          "indexed": true,
          "internalType": "address",
          "name": "tokenAddress",
          "type": "address"
        },
        {
          "indexed": true,
          "internalType": "uint256",
          "name": "tokenId",
          "type": "uint256"
        },
        {
          "indexed": false,
          "internalType": "address",
          "name": "winner",
          "type": "address"
        },
        {
          "indexed": false,
          "internalType": "uint256",
          "name": "amount",
          "type": "uint256"
        }
      ],
      "name": "AuctionEnded",
      "type": "event"
    },
    {
      "anonymous": false,
      "inputs": [
        {
          "indexed": true,
          "internalType": "address",
          "name": "tokenAddress",
          "type": "address"
        },
        {
          "indexed": true,
          "internalType": "uint256",
          "name": "tokenId",
          "type": "uint256"
        },
        {
          "indexed": true,
          "internalType": "address",
          "name": "bidder",
          "type": "address"
        },
        {
          "indexed": false,
          "internalType": "uint256",
          "name": "amount",
          "type": "uint256"
        }
      ],
      "name": "BidPlaced",
      "type": "event"
    },
    {
      "anonymous": false,
      "inputs": [
        {
          "indexed": true,
          "internalType": "address",
          "name": "tokenAddress",
          "type": "address"
        },
        {
          "indexed": true,
          "internalType": "uint256",
          "name": "tokenId",
          "type": "uint256"
        },
        {
          "indexed": true,
          "internalType": "address",
          "name": "buyer",
          "type": "address"
        },
        {
          "indexed": false,
          "internalType": "uint256",
          "name": "price",
          "type": "uint256"
        }
      ],
      "name": "ItemBought",
      "type": "event"
    },
    {
      "anonymous": false,
      "inputs": [
        {
          "indexed": true,
          "internalType": "address",
          "name": "tokenAddress",
          "type": "address"
        },
        {
          "indexed": true,
          "internalType": "uint256",
          "name": "tokenId",
          "type": "uint256"
        },
        {
          "indexed": true,
          "internalType": "address",
          "name": "seller",
          "type": "address"
        }
      ],
      "name": "ItemCanceled",
      "type": "event"
    },
    {
      "anonymous": false,
      "inputs": [
        {
          "indexed": true,
          "internalType": "address",
          "name": "tokenAddress",
          "type": "address"
        },
        {
          "indexed": true,
          "internalType": "uint256",
          "name": "tokenId",
          "type": "uint256"
        },
        {
          "indexed": true,
          "internalType": "address",
          "name": "seller",
          "type": "address"
        },
        {
          "indexed": false,
          "internalType": "uint256",
          "name": "price",
          "type": "uint256"
        }
      ],
      "name": "ItemListed",
      "type": "event"
    },
    {
      "inputs": [
        {
          "internalType": "address",
          "name": "",
          "type": "address"
        },
        {
          "internalType": "uint256",
          "name": "",
          "type": "uint256"
        }
      ],
      "name": "auctions",
      "outputs": [
        {
          "internalType": "address",
          "name": "seller",
          "type": "address"
        },
        {
          "internalType": "uint256",
          "name": "minBid",
          "type": "uint256"
        },
        {
          "internalType": "uint256",
          "name": "highestBid",
          "type": "uint256"
        },
        {
          "internalType": "address",
          "name": "highestBidder",
          "type": "address"
        },
        {
          "internalType": "uint256",
          "name": "endTime",
          "type": "uint256"
        },
        {
          "internalType": "bool",
          "name": "ended",
          "type": "bool"
        }
      ],
      "stateMutability": "view",
      "type": "function"
    },
    {
      "inputs": [
        {
          "internalType": "address",
          "name": "tokenAddress",
          "type": "address"
        },
        {
          "internalType": "uint256",
          "name": "tokenId",
          "type": "uint256"
        }
      ],
      "name": "bid",
      "outputs": [],
      "stateMutability": "payable",
      "type": "function"
    },
    {
      "inputs": [
        {
          "internalType": "address",
          "name": "tokenAddress",
          "type": "address"
        },
        {
          "internalType": "uint256",
          "name": "tokenId",
          "type": "uint256"
        }
      ],
      "name": "buyItem",
      "outputs": [],
      "stateMutability": "payable",
      "type": "function"
    },
    {
      "inputs": [
        {
          "internalType": "address",
          "name": "tokenAddress",
          "type": "address"
        },
        {
          "internalType": "uint256",
          "name": "tokenId",
          "type": "uint256"
        }
      ],
      "name": "cancelListing",
      "outputs": [],
      "stateMutability": "nonpayable",
      "type": "function"
    },
    {
      "inputs": [
        {
          "internalType": "address",
          "name": "tokenAddress",
          "type": "address"
        },
        {
          "internalType": "uint256",
          "name": "tokenId",
          "type": "uint256"
        },
        {
          "internalType": "uint256",
          "name": "minBid",
          "type": "uint256"
        },
        {
          "internalType": "uint256",
          "name": "duration",
          "type": "uint256"
        }
      ],
      "name": "createAuction",
      "outputs": [],
      "stateMutability": "nonpayable",
      "type": "function"
    },
    {
      "inputs": [
        {
          "internalType": "address",
          "name": "tokenAddress",
          "type": "address"
        },
        {
          "internalType": "uint256",
          "name": "tokenId",
          "type": "uint256"
        }
      ],
      "name": "endAuction",
      "outputs": [],
      "stateMutability": "nonpayable",
      "type": "function"
    },
    {
      "inputs": [
        {
          "internalType": "address",
          "name": "tokenAddress",
          "type": "address"
        },
        {
          "internalType": "uint256",
          "name": "tokenId",
          "type": "uint256"
        }
      ],
      "name": "getAuction",
      "outputs": [
        {
          "components": [
            {
              "internalType": "address",
              "name": "seller",
              "type": "address"
            },
            {
              "internalType": "uint256",
              "name": "minBid",
              "type": "uint256"
            },
            {
              "internalType": "uint256",
              "name": "highestBid",
              "type": "uint256"
            },
            {
              "internalType": "address",
              "name": "highestBidder",
              "type": "address"
            },
            {
              "internalType": "uint256",
              "name": "endTime",
              "type": "uint256"
            },
            {
              "internalType": "bool",
              "name": "ended",
              "type": "bool"
            }
          ],
          "internalType": "struct Marketplace.Auction",
          "name": "",
          "type": "tuple"
        }
      ],
      "stateMutability": "view",
      "type": "function"
    },
    {
      "inputs": [
        {
          "internalType": "address",
          "name": "tokenAddress",
          "type": "address"
        },
        {
          "internalType": "uint256",
          "name": "tokenId",
          "type": "uint256"
        }
      ],
      "name": "getListing",
      "outputs": [
        {
          "components": [
            {
              "internalType": "uint256",
              "name": "price",
              "type": "uint256"
            },
            {
              "internalType": "address",
              "name": "seller",
              "type": "address"
            }
          ],
          "internalType": "struct Marketplace.Listing",
          "name": "",
          "type": "tuple"
        }
      ],
      "stateMutability": "view",
      "type": "function"
    },
    {
      "inputs": [
        {
          "internalType": "address",
          "name": "tokenAddress",
          "type": "address"
        },
        {
          "internalType": "uint256",
          "name": "tokenId",
          "type": "uint256"
        },
        {
          "internalType": "uint256",
          "name": "price",
          "type": "uint256"
        }
      ],
      "name": "listItem",
      "outputs": [],
      "stateMutability": "nonpayable",
      "type": "function"
    },
    {
      "inputs": [
        {
          "internalType": "address",
          "name": "",
          "type": "address"
        },
        {
          "internalType": "uint256",
          "name": "",
          "type": "uint256"
        }
      ],
      "name": "listings",
      "outputs": [
        {
          "internalType": "uint256",
          "name": "price",
          "type": "uint256"
        },
        {
          "internalType": "address",
          "name": "seller",
          "type": "address"
        }
      ],
      "stateMutability": "view",
      "type": "function"
    }
  ],
  "bytecode": "0x6080604052348015600f57600080fd5b50612d398061001f6000396000f3fe6080604052600436106100905760003560e01c806388700d1c1161005957806388700d1c1461019757806388cedbc4146101d457806389bfd38f146101fd5780639f37092a14610226578063b2ddee061461024257610090565b806207df301461009557806344f91c1e146100d357806359d667a51461011557806361beb1d714610131578063762a66a21461015a575b600080fd5b3480156100a157600080fd5b506100bc60048036038101906100b7919061203a565b61026b565b6040516100ca929190612098565b60405180910390f35b3480156100df57600080fd5b506100fa60048036038101906100f5919061203a565b6102bc565b60405161010c969594939291906120dc565b60405180910390f35b61012f600480360381019061012a919061203a565b610352565b005b34801561013d57600080fd5b506101586004803603810190610153919061213d565b610647565b005b34801561016657600080fd5b50610181600480360381019061017c919061203a565b610961565b60405161018e919061224c565b60405180910390f35b3480156101a357600080fd5b506101be60048036038101906101b9919061203a565b610ab1565b6040516101cb9190612296565b60405180910390f35b3480156101e057600080fd5b506101fb60048036038101906101f6919061203a565b610b7b565b005b34801561020957600080fd5b50610224600480360381019061021f91906122b1565b61113d565b005b610240600480360381019061023b919061203a565b611547565b005b34801561024e57600080fd5b506102696004803603810190610264919061203a565b611b2b565b005b6000602052816000526040600020602052806000526040600020600091509150508060000154908060010160009054906101000a900473ffffffffffffffffffffffffffffffffffffffff16905082565b6001602052816000526040600020602052806000526040600020600091509150508060000160009054906101000a900473ffffffffffffffffffffffffffffffffffffffff16908060010154908060020154908060030160009054906101000a900473ffffffffffffffffffffffffffffffffffffffff16908060040154908060050160009054906101000a900460ff16905086565b600260009054906101000a900460ff16156103a2576040517f08c379a000000000000000000000000000000000000000000000000000000000815260040161039990612361565b60405180910390fd5b6001600260006101000a81548160ff0219169083151502179055506000600160008473ffffffffffffffffffffffffffffffffffffffff1673ffffffffffffffffffffffffffffffffffffffff1681526020019081526020016000206000838152602001908152602001600020905080600401544210610457576040517f08c379a000000000000000000000000000000000000000000000000000000000815260040161044e906123cd565b60405180910390fd5b8060010154341015801561046e5750806002015434115b6104ad576040517f08c379a00000000000000000000000000000000000000000000000000000000081526004016104a490612439565b60405180910390fd5b600073ffffffffffffffffffffffffffffffffffffffff168160030160009054906101000a900473ffffffffffffffffffffffffffffffffffffffff1673ffffffffffffffffffffffffffffffffffffffff1614610575578060030160009054906101000a900473ffffffffffffffffffffffffffffffffffffffff1673ffffffffffffffffffffffffffffffffffffffff166108fc82600201549081150290604051600060405180830381858888f19350505050158015610573573d6000803e3d6000fd5b505b348160020181905550338160030160006101000a81548173ffffffffffffffffffffffffffffffffffffffff021916908373ffffffffffffffffffffffffffffffffffffffff1602179055503373ffffffffffffffffffffffffffffffffffffffff16828473ffffffffffffffffffffffffffffffffffffffff167f0158f5674dc243762459b88cfc91b10d2d1ef9d40821cca978c2b680aa4446823460405161061f9190612459565b60405180910390a4506000600260006101000a81548160ff0219169083151502179055505050565b60008490503373ffffffffffffffffffffffffffffffffffffffff168173ffffffffffffffffffffffffffffffffffffffff16636352211e866040518263ffffffff1660e01b815260040161069c9190612459565b602060405180830381865afa1580156106b9573d6000803e3d6000fd5b505050506040513d601f19601f820116820180604052508101906106dd9190612489565b73ffffffffffffffffffffffffffffffffffffffff1614610733576040517f08c379a000000000000000000000000000000000000000000000000000000000815260040161072a90612502565b60405180910390fd5b60008211610776576040517f08c379a000000000000000000000000000000000000000000000000000000000815260040161076d9061256e565b60405180910390fd5b6040518060c001604052803373ffffffffffffffffffffffffffffffffffffffff16815260200184815260200160008152602001600073ffffffffffffffffffffffffffffffffffffffff16815260200183426107d391906125bd565b815260200160001515815250600160008773ffffffffffffffffffffffffffffffffffffffff1673ffffffffffffffffffffffffffffffffffffffff168152602001908152602001600020600086815260200190815260200160002060008201518160000160006101000a81548173ffffffffffffffffffffffffffffffffffffffff021916908373ffffffffffffffffffffffffffffffffffffffff160217905550602082015181600101556040820151816002015560608201518160030160006101000a81548173ffffffffffffffffffffffffffffffffffffffff021916908373ffffffffffffffffffffffffffffffffffffffff1602179055506080820151816004015560a08201518160050160006101000a81548160ff021916908315150217905550905050838573ffffffffffffffffffffffffffffffffffffffff167fbfc2001685f147773956c30c745f1b33e40df1ad4c1084b4d39c7c41bb7f668585854261094491906125bd565b6040516109529291906125f1565b60405180910390a35050505050565b610969611f03565b600160008473ffffffffffffffffffffffffffffffffffffffff1673ffffffffffffffffffffffffffffffffffffffff16815260200190815260200160002060008381526020019081526020016000206040518060c00160405290816000820160009054906101000a900473ffffffffffffffffffffffffffffffffffffffff1673ffffffffffffffffffffffffffffffffffffffff1673ffffffffffffffffffffffffffffffffffffffff16815260200160018201548152602001600282015481526020016003820160009054906101000a900473ffffffffffffffffffffffffffffffffffffffff1673ffffffffffffffffffffffffffffffffffffffff1673ffffffffffffffffffffffffffffffffffffffff168152602001600482015481526020016005820160009054906101000a900460ff161515151581525050905092915050565b610ab9611f67565b6000808473ffffffffffffffffffffffffffffffffffffffff1673ffffffffffffffffffffffffffffffffffffffff1681526020019081526020016000206000838152602001908152602001600020604051806040016040529081600082015481526020016001820160009054906101000a900473ffffffffffffffffffffffffffffffffffffffff1673ffffffffffffffffffffffffffffffffffffffff1673ffffffffffffffffffffffffffffffffffffffff1681525050905092915050565b600260009054906101000a900460ff1615610bcb576040517f08c379a0000000000000000000000000000000000000000000000000000000008152600401610bc290612361565b60405180910390fd5b6001600260006101000a81548160ff0219169083151502179055506000600160008473ffffffffffffffffffffffffffffffffffffffff1673ffffffffffffffffffffffffffffffffffffffff168152602001908152602001600020600083815260200190815260200160002090508060040154421015610c81576040517f08c379a0000000000000000000000000000000000000000000000000000000008152600401610c7890612666565b60405180910390fd5b8060050160009054906101000a900460ff1615610cd3576040517f08c379a0000000000000000000000000000000000000000000000000000000008152600401610cca906126d2565b60405180910390fd5b60018160050160006101000a81548160ff021916908315150217905550600073ffffffffffffffffffffffffffffffffffffffff168160030160009054906101000a900473ffffffffffffffffffffffffffffffffffffffff1673ffffffffffffffffffffffffffffffffffffffff16146110a4578273ffffffffffffffffffffffffffffffffffffffff166342842e0e8260000160009054906101000a900473ffffffffffffffffffffffffffffffffffffffff168360030160009054906101000a900473ffffffffffffffffffffffffffffffffffffffff16856040518463ffffffff1660e01b8152600401610dcd939291906126f2565b600060405180830381600087803b158015610de757600080fd5b505af1158015610dfb573d6000803e3d6000fd5b505050506000808473ffffffffffffffffffffffffffffffffffffffff166301ffc9a77f2a55205a000000000000000000000000000000000000000000000000000000006040518263ffffffff1660e01b8152600401610e5b9190612764565b602060405180830381865afa158015610e78573d6000803e3d6000fd5b505050506040513d601f19601f82011682018060405250810190610e9c91906127ab565b15610f29578473ffffffffffffffffffffffffffffffffffffffff16632a55205a8585600201546040518363ffffffff1660e01b8152600401610ee09291906125f1565b6040805180830381865afa158015610efc573d6000803e3d6000fd5b505050506040513d601f19601f82011682018060405250810190610f2091906127ed565b80935081925050505b600082118015610f665750600073ffffffffffffffffffffffffffffffffffffffff168173ffffffffffffffffffffffffffffffffffffffff1614155b15611031578073ffffffffffffffffffffffffffffffffffffffff166108fc839081150290604051600060405180830381858888f19350505050158015610fb1573d6000803e3d6000fd5b508260000160009054906101000a900473ffffffffffffffffffffffffffffffffffffffff1673ffffffffffffffffffffffffffffffffffffffff166108fc838560020154611000919061282d565b9081150290604051600060405180830381858888f1935050505015801561102b573d6000803e3d6000fd5b506110a1565b8260000160009054906101000a900473ffffffffffffffffffffffffffffffffffffffff1673ffffffffffffffffffffffffffffffffffffffff166108fc84600201549081150290604051600060405180830381858888f1935050505015801561109f573d6000803e3d6000fd5b505b50505b818373ffffffffffffffffffffffffffffffffffffffff167f4d31a5599cdb48031c1f03259adbd513be468c5735012719a1a9850869b558b18360030160009054906101000a900473ffffffffffffffffffffffffffffffffffffffff168460020154604051611115929190612861565b60405180910390a3506000600260006101000a81548160ff0219169083151502179055505050565b60008111611180576040517f08c379a0000000000000000000000000000000000000000000000000000000008152600401611177906128d6565b60405180910390fd5b60008390503373ffffffffffffffffffffffffffffffffffffffff168173ffffffffffffffffffffffffffffffffffffffff16636352211e856040518263ffffffff1660e01b81526004016111d59190612459565b602060405180830381865afa1580156111f2573d6000803e3d6000fd5b505050506040513d601f19601f820116820180604052508101906112169190612489565b73ffffffffffffffffffffffffffffffffffffffff161461126c576040517f08c379a000000000000000000000000000000000000000000000000000000000815260040161126390612942565b60405180910390fd5b3073ffffffffffffffffffffffffffffffffffffffff168173ffffffffffffffffffffffffffffffffffffffff1663081812fc856040518263ffffffff1660e01b81526004016112bc9190612459565b602060405180830381865afa1580156112d9573d6000803e3d6000fd5b505050506040513d601f19601f820116820180604052508101906112fd9190612489565b73ffffffffffffffffffffffffffffffffffffffff16148061139757508073ffffffffffffffffffffffffffffffffffffffff1663e985e9c533306040518363ffffffff1660e01b8152600401611355929190612962565b602060405180830381865afa158015611372573d6000803e3d6000fd5b505050506040513d601f19601f8201168201806040525081019061139691906127ab565b5b6113d6576040517f08c379a00000000000000000000000000000000000000000000000000000000081526004016113cd906129d7565b60405180910390fd5b60405180604001604052808381526020013373ffffffffffffffffffffffffffffffffffffffff168152506000808673ffffffffffffffffffffffffffffffffffffffff1673ffffffffffffffffffffffffffffffffffffffff16815260200190815260200160002060008581526020019081526020016000206000820151816000015560208201518160010160006101000a81548173ffffffffffffffffffffffffffffffffffffffff021916908373ffffffffffffffffffffffffffffffffffffffff1602179055509050503373ffffffffffffffffffffffffffffffffffffffff16838573ffffffffffffffffffffffffffffffffffffffff167fb29a3c5d9c9eb8230bd277c54293a0a15e98cd5592a3e0d470fe9ce59fed54f1856040516115029190612459565b60405180910390a4611541604051806060016040528060308152602001612cd4603091393385670de0b6b3a76400008661153c9190612a26565b611d7c565b50505050565b600260009054906101000a900460ff1615611597576040517f08c379a000000000000000000000000000000000000000000000000000000000815260040161158e90612361565b60405180910390fd5b6001600260006101000a81548160ff02191690831515021790555060008060008473ffffffffffffffffffffffffffffffffffffffff1673ffffffffffffffffffffffffffffffffffffffff1681526020019081526020016000206000838152602001908152602001600020604051806040016040529081600082015481526020016001820160009054906101000a900473ffffffffffffffffffffffffffffffffffffffff1673ffffffffffffffffffffffffffffffffffffffff1673ffffffffffffffffffffffffffffffffffffffff1681525050905060008160000151116116b7576040517f08c379a00000000000000000000000000000000000000000000000000000000081526004016116ae90612aa3565b60405180910390fd5b806000015134146116fd576040517f08c379a00000000000000000000000000000000000000000000000000000000081526004016116f490612b0f565b60405180910390fd5b6000808473ffffffffffffffffffffffffffffffffffffffff1673ffffffffffffffffffffffffffffffffffffffff16815260200190815260200160002060008381526020019081526020016000206000808201600090556001820160006101000a81549073ffffffffffffffffffffffffffffffffffffffff021916905550508273ffffffffffffffffffffffffffffffffffffffff166342842e0e826020015133856040518463ffffffff1660e01b81526004016117bf939291906126f2565b600060405180830381600087803b1580156117d957600080fd5b505af11580156117ed573d6000803e3d6000fd5b505050506000808473ffffffffffffffffffffffffffffffffffffffff166301ffc9a77f2a55205a000000000000000000000000000000000000000000000000000000006040518263ffffffff1660e01b815260040161184d9190612764565b602060405180830381865afa15801561186a573d6000803e3d6000fd5b505050506040513d601f19601f8201168201806040525081019061188e91906127ab565b15611917578473ffffffffffffffffffffffffffffffffffffffff16632a55205a85346040518363ffffffff1660e01b81526004016118ce9291906125f1565b6040805180830381865afa1580156118ea573d6000803e3d6000fd5b505050506040513d601f19601f8201168201806040525081019061190e91906127ed565b80935081925050505b6000821180156119545750600073ffffffffffffffffffffffffffffffffffffffff168173ffffffffffffffffffffffffffffffffffffffff1614155b156119fb578073ffffffffffffffffffffffffffffffffffffffff166108fc839081150290604051600060405180830381858888f1935050505015801561199f573d6000803e3d6000fd5b50826020015173ffffffffffffffffffffffffffffffffffffffff166108fc83346119ca919061282d565b9081150290604051600060405180830381858888f193505050501580156119f5573d6000803e3d6000fd5b50611a47565b826020015173ffffffffffffffffffffffffffffffffffffffff166108fc349081150290604051600060405180830381858888f19350505050158015611a45573d6000803e3d6000fd5b505b3373ffffffffffffffffffffffffffffffffffffffff16848673ffffffffffffffffffffffffffffffffffffffff167f3e54435e36ae559863863c86ae49ae6974ff464d5ccf01c2aae2254c9131b1a68660000151604051611aa99190612459565b60405180910390a4611b096040518060400160405280601881526020017f257320626f7567687420257320666f72202573204554482e00000000000000008152503386670de0b6b3a76400008760000151611b049190612a26565b611d7c565b5050506000600260006101000a81548160ff0219169083151502179055505050565b60008060008473ffffffffffffffffffffffffffffffffffffffff1673ffffffffffffffffffffffffffffffffffffffff1681526020019081526020016000206000838152602001908152602001600020604051806040016040529081600082015481526020016001820160009054906101000a900473ffffffffffffffffffffffffffffffffffffffff1673ffffffffffffffffffffffffffffffffffffffff1673ffffffffffffffffffffffffffffffffffffffff168152505090503373ffffffffffffffffffffffffffffffffffffffff16816020015173ffffffffffffffffffffffffffffffffffffffff1614611c5b576040517f08c379a0000000000000000000000000000000000000000000000000000000008152600401611c5290612b7b565b60405180910390fd5b6000808473ffffffffffffffffffffffffffffffffffffffff1673ffffffffffffffffffffffffffffffffffffffff16815260200190815260200160002060008381526020019081526020016000206000808201600090556001820160006101000a81549073ffffffffffffffffffffffffffffffffffffffff021916905550503373ffffffffffffffffffffffffffffffffffffffff16828473ffffffffffffffffffffffffffffffffffffffff167fc448b641f9d136b2082a1543ddddd8b6f8b86576bc444a187505ea3934bac2f860405160405180910390a4611d776040518060400160405280601381526020017f2573206c6973742063616e63656c6564202573000000000000000000000000008152503384611e1e565b505050565b611e1884848484604051602401611d969493929190612c1a565b6040516020818303038152906040527ff8f51b1e000000000000000000000000000000000000000000000000000000007bffffffffffffffffffffffffffffffffffffffffffffffffffffffff19166020820180517bffffffffffffffffffffffffffffffffffffffffffffffffffffffff8381831617835250505050611ebd565b50505050565b611eb8838383604051602401611e3693929190612c66565b6040516020818303038152906040527f0d26b925000000000000000000000000000000000000000000000000000000007bffffffffffffffffffffffffffffffffffffffffffffffffffffffff19166020820180517bffffffffffffffffffffffffffffffffffffffffffffffffffffffff8381831617835250505050611ebd565b505050565b611ed481611ecc611ed7611ef8565b63ffffffff16565b50565b60006a636f6e736f6c652e6c6f679050600080835160208501845afa505050565b611f97819050919050565b6040518060c00160405280600073ffffffffffffffffffffffffffffffffffffffff1681526020016000815260200160008152602001600073ffffffffffffffffffffffffffffffffffffffff168152602001600081526020016000151581525090565b604051806040016040528060008152602001600073ffffffffffffffffffffffffffffffffffffffff1681525090565b611f9f612ca4565b565b600080fd5b600073ffffffffffffffffffffffffffffffffffffffff82169050919050565b6000611fd182611fa6565b9050919050565b611fe181611fc6565b8114611fec57600080fd5b50565b600081359050611ffe81611fd8565b92915050565b6000819050919050565b61201781612004565b811461202257600080fd5b50565b6000813590506120348161200e565b92915050565b6000806040838503121561205157612050611fa1565b5b600061205f85828601611fef565b925050602061207085828601612025565b9150509250929050565b61208381612004565b82525050565b61209281611fc6565b82525050565b60006040820190506120ad600083018561207a565b6120ba6020830184612089565b9392505050565b60008115159050919050565b6120d6816120c1565b82525050565b600060c0820190506120f16000830189612089565b6120fe602083018861207a565b61210b604083018761207a565b6121186060830186612089565b612125608083018561207a565b61213260a08301846120cd565b979650505050505050565b6000806000806080858703121561215757612156611fa1565b5b600061216587828801611fef565b945050602061217687828801612025565b935050604061218787828801612025565b925050606061219887828801612025565b91505092959194509250565b6121ad81611fc6565b82525050565b6121bc81612004565b82525050565b6121cb816120c1565b82525050565b60c0820160008201516121e760008501826121a4565b5060208201516121fa60208501826121b3565b50604082015161220d60408501826121b3565b50606082015161222060608501826121a4565b50608082015161223360808501826121b3565b5060a082015161224660a08501826121c2565b50505050565b600060c08201905061226160008301846121d1565b92915050565b60408201600082015161227d60008501826121b3565b50602082015161229060208501826121a4565b50505050565b60006040820190506122ab6000830184612267565b92915050565b6000806000606084860312156122ca576122c9611fa1565b5b60006122d886828701611fef565b93505060206122e986828701612025565b92505060406122fa86828701612025565b9150509250925092565b600082825260208201905092915050565b7f5265656e7472616e637920646574656374656400000000000000000000000000600082015250565b600061234b601383612304565b915061235682612315565b602082019050919050565b6000602082019050818103600083015261237a8161233e565b9050919050565b7f41756374696f6e20656e64656400000000000000000000000000000000000000600082015250565b60006123b7600d83612304565b91506123c282612381565b602082019050919050565b600060208201905081810360008301526123e6816123aa565b9050919050565b7f42696420746f6f206c6f77000000000000000000000000000000000000000000600082015250565b6000612423600b83612304565b915061242e826123ed565b602082019050919050565b6000602082019050818103600083015261245281612416565b9050919050565b600060208201905061246e600083018461207a565b92915050565b60008151905061248381611fd8565b92915050565b60006020828403121561249f5761249e611fa1565b5b60006124ad84828501612474565b91505092915050565b7f4e6f74206f776e65720000000000000000000000000000000000000000000000600082015250565b60006124ec600983612304565b91506124f7826124b6565b602082019050919050565b6000602082019050818103600083015261251b816124df565b9050919050565b7f496e76616c6964206475726174696f6e00000000000000000000000000000000600082015250565b6000612558601083612304565b915061256382612522565b602082019050919050565b600060208201905081810360008301526125878161254b565b9050919050565b7f4e487b7100000000000000000000000000000000000000000000000000000000600052601160045260246000fd5b60006125c882612004565b91506125d383612004565b92508282019050808211156125eb576125ea61258e565b5b92915050565b6000604082019050612606600083018561207a565b612613602083018461207a565b9392505050565b7f41756374696f6e206e6f742079657420656e6465640000000000000000000000600082015250565b6000612650601583612304565b915061265b8261261a565b602082019050919050565b6000602082019050818103600083015261267f81612643565b9050919050565b7f41756374696f6e20616c726561647920656e6465640000000000000000000000600082015250565b60006126bc601583612304565b91506126c782612686565b602082019050919050565b600060208201905081810360008301526126eb816126af565b9050919050565b60006060820190506127076000830186612089565b6127146020830185612089565b612721604083018461207a565b949350505050565b60007fffffffff0000000000000000000000000000000000000000000000000000000082169050919050565b61275e81612729565b82525050565b60006020820190506127796000830184612755565b92915050565b612788816120c1565b811461279357600080fd5b50565b6000815190506127a58161277f565b92915050565b6000602082840312156127c1576127c0611fa1565b5b60006127cf84828501612796565b91505092915050565b6000815190506127e78161200e565b92915050565b6000806040838503121561280457612803611fa1565b5b600061281285828601612474565b9250506020612823858286016127d8565b9150509250929050565b600061283882612004565b915061284383612004565b925082820390508181111561285b5761285a61258e565b5b92915050565b60006040820190506128766000830185612089565b612883602083018461207a565b9392505050565b7f5072696365206d757374206265203e2030000000000000000000000000000000600082015250565b60006128c0601183612304565b91506128cb8261288a565b602082019050919050565b600060208201905081810360008301526128ef816128b3565b9050919050565b7f4e6f7420746865206f776e657200000000000000000000000000000000000000600082015250565b600061292c600d83612304565b9150612937826128f6565b602082019050919050565b6000602082019050818103600083015261295b8161291f565b9050919050565b60006040820190506129776000830185612089565b6129846020830184612089565b9392505050565b7f4d61726b6574706c616365206e6f7420617070726f7665640000000000000000600082015250565b60006129c1601883612304565b91506129cc8261298b565b602082019050919050565b600060208201905081810360008301526129f0816129b4565b9050919050565b7f4e487b7100000000000000000000000000000000000000000000000000000000600052601260045260246000fd5b6000612a3182612004565b9150612a3c83612004565b925082612a4c57612a4b6129f7565b5b828204905092915050565b7f4e4654206e6f7420666f722073616c6500000000000000000000000000000000600082015250565b6000612a8d601083612304565b9150612a9882612a57565b602082019050919050565b60006020820190508181036000830152612abc81612a80565b9050919050565b7f53656e6420657861637420455448000000000000000000000000000000000000600082015250565b6000612af9600e83612304565b9150612b0482612ac3565b602082019050919050565b60006020820190508181036000830152612b2881612aec565b9050919050565b7f4e6f742073656c6c657200000000000000000000000000000000000000000000600082015250565b6000612b65600a83612304565b9150612b7082612b2f565b602082019050919050565b60006020820190508181036000830152612b9481612b58565b9050919050565b600081519050919050565b60005b83811015612bc4578082015181840152602081019050612ba9565b60008484015250505050565b6000601f19601f8301169050919050565b6000612bec82612b9b565b612bf68185612304565b9350612c06818560208601612ba6565b612c0f81612bd0565b840191505092915050565b60006080820190508181036000830152612c348187612be1565b9050612c436020830186612089565b612c50604083018561207a565b612c5d606083018461207a565b95945050505050565b60006060820190508181036000830152612c808186612be1565b9050612c8f6020830185612089565b612c9c604083018461207a565b949350505050565b7f4e487b7100000000000000000000000000000000000000000000000000000000600052605160045260246000fdfe2573277320746f6b656e2d25732077617320636f6d706c6574656c79206c697374656420696e746f202573204554482ea26469706673582212208666c22ddc1b4bb4e14ea651dfb0cd5638310f22ed2b53e9bb08e10807ac7eb964736f6c634300081c0033",
  "linkReferences": {},
  "deployedLinkReferences": {}
}