{
  "_format": "hh-sol-artifact-1",
  "contractName": "NFT",
  "sourceName": "contracts/NFT.sol",
  "abi": [
    {
      "inputs": [],
      "stateMutability": "nonpayable",
      "type": "constructor"
    },
    {
      "inputs": [
        {
          "internalType": "uint256",
          "name": "numerator",
          "type": "uint256"
        },
        {
          "internalType": "uint256",
          "name": "denominator",
          "type": "uint256"
        }
      ],
      "name": "ERC2981InvalidDefaultRoyalty",
      "type": "error"
    },
    {
      "inputs": [
        {
          "internalType": "address",
          "name": "receiver",
          "type": "address"
        }
      ],
      "name": "ERC2981InvalidDefaultRoyaltyReceiver",
      "type": "error"
    },
    {
      "inputs": [
        {
          "internalType": "uint256",
          "name": "tokenId",
          "type": "uint256"
        },
        {
          "internalType": "uint256",
          "name": "numerator",
          "type": "uint256"
        },
        {
          "internalType": "uint256",
          "name": "denominator",
          "type": "uint256"
        }
      ],
      "name": "ERC2981InvalidTokenRoyalty",
      "type": "error"
    },
    {
      "inputs": [
        {
          "internalType": "uint256",
          "name": "tokenId",
          "type": "uint256"
        },
        {
          "internalType": "address",
          "name": "receiver",
          "type": "address"
        }
      ],
      "name": "ERC2981InvalidTokenRoyaltyReceiver",
      "type": "error"
    },
    {
      "inputs": [
        {
          "internalType": "address",
          "name": "sender",
          "type": "address"
        },
        {
          "internalType": "uint256",
          "name": "tokenId",
          "type": "uint256"
        },
        {
          "internalType": "address",
          "name": "owner",
          "type": "address"
        }
      ],
      "name": "ERC721IncorrectOwner",
      "type": "error"
    },
    {
      "inputs": [
        {
          "internalType": "address",
          "name": "operator",
          "type": "address"
        },
        {
          "internalType": "uint256",
          "name": "tokenId",
          "type": "uint256"
        }
      ],
      "name": "ERC721InsufficientApproval",
      "type": "error"
    },
    {
      "inputs": [
        {
          "internalType": "address",
          "name": "approver",
          "type": "address"
        }
      ],
      "name": "ERC721InvalidApprover",
      "type": "error"
    },
    {
      "inputs": [
        {
          "internalType": "address",
          "name": "operator",
          "type": "address"
        }
      ],
      "name": "ERC721InvalidOperator",
      "type": "error"
    },
    {
      "inputs": [
        {
          "internalType": "address",
          "name": "owner",
          "type": "address"
        }
      ],
      "name": "ERC721InvalidOwner",
      "type": "error"
    },
    {
      "inputs": [
        {
          "internalType": "address",
          "name": "receiver",
          "type": "address"
        }
      ],
      "name": "ERC721InvalidReceiver",
      "type": "error"
    },
    {
      "inputs": [
        {
          "internalType": "address",
          "name": "sender",
          "type": "address"
        }
      ],
      "name": "ERC721InvalidSender",
      "type": "error"
    },
    {
      "inputs": [
        {
          "internalType": "uint256",
          "name": "tokenId",
          "type": "uint256"
        }
      ],
      "name": "ERC721NonexistentToken",
      "type": "error"
    },
    {
      "inputs": [
        {
          "internalType": "address",
          "name": "owner",
          "type": "address"
        }
      ],
      "name": "OwnableInvalidOwner",
      "type": "error"
    },
    {
      "inputs": [
        {
          "internalType": "address",
          "name": "account",
          "type": "address"
        }
      ],
      "name": "OwnableUnauthorizedAccount",
      "type": "error"
    },
    {
      "anonymous": false,
      "inputs": [
        {
          "indexed": true,
          "internalType": "address",
          "name": "owner",
          "type": "address"
        },
        {
          "indexed": true,
          "internalType": "address",
          "name": "approved",
          "type": "address"
        },
        {
          "indexed": true,
          "internalType": "uint256",
          "name": "tokenId",
          "type": "uint256"
        }
      ],
      "name": "Approval",
      "type": "event"
    },
    {
      "anonymous": false,
      "inputs": [
        {
          "indexed": true,
          "internalType": "address",
          "name": "owner",
          "type": "address"
        },
        {
          "indexed": true,
          "internalType": "address",
          "name": "operator",
          "type": "address"
        },
        {
          "indexed": false,
          "internalType": "bool",
          "name": "approved",
          "type": "bool"
        }
      ],
      "name": "ApprovalForAll",
      "type": "event"
    },
    {
      "anonymous": false,
      "inputs": [
        {
          "indexed": false,
          "internalType": "uint256",
          "name": "_fromTokenId",
          "type": "uint256"
        },
        {
          "indexed": false,
          "internalType": "uint256",
          "name": "_toTokenId",
          "type": "uint256"
        }
      ],
      "name": "BatchMetadataUpdate",
      "type": "event"
    },
    {
      "anonymous": false,
      "inputs": [
        {
          "indexed": true,
          "internalType": "address",
          "name": "from",
          "type": "address"
        },
        {
          "indexed": true,
          "internalType": "address",
          "name": "to",
          "type": "address"
        },
        {
          "indexed": false,
          "internalType": "uint256",
          "name": "tokenId",
          "type": "uint256"
        }
      ],
      "name": "FreeTransfer",
      "type": "event"
    },
    {
      "anonymous": false,
      "inputs": [
        {
          "indexed": false,
          "internalType": "uint256",
          "name": "_tokenId",
          "type": "uint256"
        }
      ],
      "name": "MetadataUpdate",
      "type": "event"
    },
    {
      "anonymous": false,
      "inputs": [
        {
          "indexed": true,
          "internalType": "address",
          "name": "user",
          "type": "address"
        },
        {
          "indexed": false,
          "internalType": "uint256",
          "name": "tokenId",
          "type": "uint256"
        },
        {
          "indexed": false,
          "internalType": "string",
          "name": "collectionName",
          "type": "string"
        }
      ],
      "name": "Minted",
      "type": "event"
    },
    {
      "anonymous": false,
      "inputs": [
        {
          "indexed": true,
          "internalType": "address",
          "name": "previousOwner",
          "type": "address"
        },
        {
          "indexed": true,
          "internalType": "address",
          "name": "newOwner",
          "type": "address"
        }
      ],
      "name": "OwnershipTransferred",
      "type": "event"
    },
    {
      "anonymous": false,
      "inputs": [
        {
          "indexed": true,
          "internalType": "address",
          "name": "from",
          "type": "address"
        },
        {
          "indexed": true,
          "internalType": "address",
          "name": "to",
          "type": "address"
        },
        {
          "indexed": true,
          "internalType": "uint256",
          "name": "tokenId",
          "type": "uint256"
        }
      ],
      "name": "Transfer",
      "type": "event"
    },
    {
      "inputs": [],
      "name": "MINT_PRICE",
      "outputs": [
        {
          "internalType": "uint256",
          "name": "",
          "type": "uint256"
        }
      ],
      "stateMutability": "view",
      "type": "function"
    },
    {
      "inputs": [
        {
          "internalType": "address",
          "name": "to",
          "type": "address"
        },
        {
          "internalType": "uint256",
          "name": "tokenId",
          "type": "uint256"
        }
      ],
      "name": "approve",
      "outputs": [],
      "stateMutability": "nonpayable",
      "type": "function"
    },
    {
      "inputs": [
        {
          "internalType": "address",
          "name": "owner",
          "type": "address"
        }
      ],
      "name": "balanceOf",
      "outputs": [
        {
          "internalType": "uint256",
          "name": "",
          "type": "uint256"
        }
      ],
      "stateMutability": "view",
      "type": "function"
    },
    {
      "inputs": [
        {
          "internalType": "uint256",
          "name": "",
          "type": "uint256"
        }
      ],
      "name": "collections",
      "outputs": [
        {
          "internalType": "string",
          "name": "",
          "type": "string"
        }
      ],
      "stateMutability": "view",
      "type": "function"
    },
    {
      "inputs": [
        {
          "internalType": "uint256",
          "name": "tokenId",
          "type": "uint256"
        },
        {
          "internalType": "address",
          "name": "to",
          "type": "address"
        }
      ],
      "name": "freeTransfer",
      "outputs": [],
      "stateMutability": "nonpayable",
      "type": "function"
    },
    {
      "inputs": [
        {
          "internalType": "uint256",
          "name": "tokenId",
          "type": "uint256"
        }
      ],
      "name": "getApproved",
      "outputs": [
        {
          "internalType": "address",
          "name": "",
          "type": "address"
        }
      ],
      "stateMutability": "view",
      "type": "function"
    },
    {
      "inputs": [
        {
          "internalType": "address",
          "name": "owner",
          "type": "address"
        },
        {
          "internalType": "address",
          "name": "operator",
          "type": "address"
        }
      ],
      "name": "isApprovedForAll",
      "outputs": [
        {
          "internalType": "bool",
          "name": "",
          "type": "bool"
        }
      ],
      "stateMutability": "view",
      "type": "function"
    },
    {
      "inputs": [
        {
          "internalType": "string",
          "name": "tokenURI",
          "type": "string"
        },
        {
          "internalType": "string",
          "name": "collectionName",
          "type": "string"
        }
      ],
      "name": "mintNFT",
      "outputs": [
        {
          "internalType": "uint256",
          "name": "",
          "type": "uint256"
        }
      ],
      "stateMutability": "payable",
      "type": "function"
    },
    {
      "inputs": [],
      "name": "name",
      "outputs": [
        {
          "internalType": "string",
          "name": "",
          "type": "string"
        }
      ],
      "stateMutability": "view",
      "type": "function"
    },
    {
      "inputs": [],
      "name": "owner",
      "outputs": [
        {
          "internalType": "address",
          "name": "",
          "type": "address"
        }
      ],
      "stateMutability": "view",
      "type": "function"
    },
    {
      "inputs": [
        {
          "internalType": "uint256",
          "name": "tokenId",
          "type": "uint256"
        }
      ],
      "name": "ownerOf",
      "outputs": [
        {
          "internalType": "address",
          "name": "",
          "type": "address"
        }
      ],
      "stateMutability": "view",
      "type": "function"
    },
    {
      "inputs": [],
      "name": "renounceOwnership",
      "outputs": [],
      "stateMutability": "nonpayable",
      "type": "function"
    },
    {
      "inputs": [
        {
          "internalType": "uint256",
          "name": "tokenId",
          "type": "uint256"
        },
        {
          "internalType": "uint256",
          "name": "salePrice",
          "type": "uint256"
        }
      ],
      "name": "royaltyInfo",
      "outputs": [
        {
          "internalType": "address",
          "name": "receiver",
          "type": "address"
        },
        {
          "internalType": "uint256",
          "name": "amount",
          "type": "uint256"
        }
      ],
      "stateMutability": "view",
      "type": "function"
    },
    {
      "inputs": [
        {
          "internalType": "address",
          "name": "from",
          "type": "address"
        },
        {
          "internalType": "address",
          "name": "to",
          "type": "address"
        },
        {
          "internalType": "uint256",
          "name": "tokenId",
          "type": "uint256"
        }
      ],
      "name": "safeTransferFrom",
      "outputs": [],
      "stateMutability": "nonpayable",
      "type": "function"
    },
    {
      "inputs": [
        {
          "internalType": "address",
          "name": "from",
          "type": "address"
        },
        {
          "internalType": "address",
          "name": "to",
          "type": "address"
        },
        {
          "internalType": "uint256",
          "name": "tokenId",
          "type": "uint256"
        },
        {
          "internalType": "bytes",
          "name": "data",
          "type": "bytes"
        }
      ],
      "name": "safeTransferFrom",
      "outputs": [],
      "stateMutability": "nonpayable",
      "type": "function"
    },
    {
      "inputs": [
        {
          "internalType": "address",
          "name": "operator",
          "type": "address"
        },
        {
          "internalType": "bool",
          "name": "approved",
          "type": "bool"
        }
      ],
      "name": "setApprovalForAll",
      "outputs": [],
      "stateMutability": "nonpayable",
      "type": "function"
    },
    {
      "inputs": [
        {
          "internalType": "uint256",
          "name": "tokenId",
          "type": "uint256"
        },
        {
          "internalType": "address",
          "name": "recipient",
          "type": "address"
        },
        {
          "internalType": "uint96",
          "name": "fraction",
          "type": "uint96"
        }
      ],
      "name": "setTokenRoyalty",
      "outputs": [],
      "stateMutability": "nonpayable",
      "type": "function"
    },
    {
      "inputs": [
        {
          "internalType": "bytes4",
          "name": "interfaceId",
          "type": "bytes4"
        }
      ],
      "name": "supportsInterface",
      "outputs": [
        {
          "internalType": "bool",
          "name": "",
          "type": "bool"
        }
      ],
      "stateMutability": "view",
      "type": "function"
    },
    {
      "inputs": [],
      "name": "symbol",
      "outputs": [
        {
          "internalType": "string",
          "name": "",
          "type": "string"
        }
      ],
      "stateMutability": "view",
      "type": "function"
    },
    {
      "inputs": [],
      "name": "tokenCounter",
      "outputs": [
        {
          "internalType": "uint256",
          "name": "",
          "type": "uint256"
        }
      ],
      "stateMutability": "view",
      "type": "function"
    },
    {
      "inputs": [
        {
          "internalType": "uint256",
          "name": "tokenId",
          "type": "uint256"
        }
      ],
      "name": "tokenURI",
      "outputs": [
        {
          "internalType": "string",
          "name": "",
          "type": "string"
        }
      ],
      "stateMutability": "view",
      "type": "function"
    },
    {
      "inputs": [
        {
          "internalType": "address",
          "name": "from",
          "type": "address"
        },
        {
          "internalType": "address",
          "name": "to",
          "type": "address"
        },
        {
          "internalType": "uint256",
          "name": "tokenId",
          "type": "uint256"
        }
      ],
      "name": "transferFrom",
      "outputs": [],
      "stateMutability": "nonpayable",
      "type": "function"
    },
    {
      "inputs": [
        {
          "internalType": "address",
          "name": "newOwner",
          "type": "address"
        }
      ],
      "name": "transferOwnership",
      "outputs": [],
      "stateMutability": "nonpayable",
      "type": "function"
    },
    {
      "inputs": [
        {
          "internalType": "address payable",
          "name": "to",
          "type": "address"
        }
      ],
      "name": "withdraw",
      "outputs": [],
      "stateMutability": "nonpayable",
      "type": "function"
    }
  ],
  "bytecode": "0x608060405234801561001057600080fd5b50336040518060400160405280600f81526020017f4d794e4654436f6c6c656374696f6e00000000000000000000000000000000008152506040518060400160405280600481526020017f4d4e465400000000000000000000000000000000000000000000000000000000815250816000908161008d919061074d565b50806001908161009d919061074d565b505050600073ffffffffffffffffffffffffffffffffffffffff168173ffffffffffffffffffffffffffffffffffffffff16036101125760006040517f1e4fbdf70000000000000000000000000000000000000000000000000000000081526004016101099190610860565b60405180910390fd5b6101218161018560201b60201c565b506000600a8190555061016e6040518060400160405280601081526020017f6c6f672d2d2d2d2d4465706c6f7965640000000000000000000000000000000081525061024b60201b60201c565b610180336101f46102ea60201b60201c565b6109d2565b6000600960009054906101000a900473ffffffffffffffffffffffffffffffffffffffff16905081600960006101000a81548173ffffffffffffffffffffffffffffffffffffffff021916908373ffffffffffffffffffffffffffffffffffffffff1602179055508173ffffffffffffffffffffffffffffffffffffffff168173ffffffffffffffffffffffffffffffffffffffff167f8be0079c531659141344cd1fd0a4f28419497f9722a3daafe3b4186f6b6457e060405160405180910390a35050565b6102e78160405160240161025f9190610900565b6040516020818303038152906040527f41304fac000000000000000000000000000000000000000000000000000000007bffffffffffffffffffffffffffffffffffffffffffffffffffffffff19166020820180517bffffffffffffffffffffffffffffffffffffffffffffffffffffffff838183161783525050505061049260201b60201c565b50565b60006102fa6104b660201b60201c565b6bffffffffffffffffffffffff16905080826bffffffffffffffffffffffff16111561035f5781816040517f6f483d0900000000000000000000000000000000000000000000000000000000815260040161035692919061097a565b60405180910390fd5b600073ffffffffffffffffffffffffffffffffffffffff168373ffffffffffffffffffffffffffffffffffffffff16036103d15760006040517fb6d9900a0000000000000000000000000000000000000000000000000000000081526004016103c89190610860565b60405180910390fd5b60405180604001604052808473ffffffffffffffffffffffffffffffffffffffff168152602001836bffffffffffffffffffffffff16815250600760008201518160000160006101000a81548173ffffffffffffffffffffffffffffffffffffffff021916908373ffffffffffffffffffffffffffffffffffffffff16021790555060208201518160000160146101000a8154816bffffffffffffffffffffffff02191690836bffffffffffffffffffffffff160217905550905050505050565b6104b3816104ae6104c060201b6111e8176104e160201b60201c565b60201c565b50565b6000612710905090565b60006a636f6e736f6c652e6c6f679050600080835160208501845afa505050565b6104f360201b61288917819050919050565b6104fb6109a3565b565b600081519050919050565b7f4e487b7100000000000000000000000000000000000000000000000000000000600052604160045260246000fd5b7f4e487b7100000000000000000000000000000000000000000000000000000000600052602260045260246000fd5b6000600282049050600182168061057e57607f821691505b60208210810361059157610590610537565b5b50919050565b60008190508160005260206000209050919050565b60006020601f8301049050919050565b600082821b905092915050565b6000600883026105f97fffffffffffffffffffffffffffffffffffffffffffffffffffffffffffffffff826105bc565b61060386836105bc565b95508019841693508086168417925050509392505050565b6000819050919050565b6000819050919050565b600061064a6106456106408461061b565b610625565b61061b565b9050919050565b6000819050919050565b6106648361062f565b61067861067082610651565b8484546105c9565b825550505050565b600090565b61068d610680565b61069881848461065b565b505050565b5b818110156106bc576106b1600082610685565b60018101905061069e565b5050565b601f821115610701576106d281610597565b6106db846105ac565b810160208510156106ea578190505b6106fe6106f6856105ac565b83018261069d565b50505b505050565b600082821c905092915050565b600061072460001984600802610706565b1980831691505092915050565b600061073d8383610713565b9150826002028217905092915050565b610756826104fd565b67ffffffffffffffff81111561076f5761076e610508565b5b6107798254610566565b6107848282856106c0565b600060209050601f8311600181146107b757600084156107a5578287015190505b6107af8582610731565b865550610817565b601f1984166107c586610597565b60005b828110156107ed578489015182556001820191506020850194506020810190506107c8565b8683101561080a5784890151610806601f891682610713565b8355505b6001600288020188555050505b505050505050565b600073ffffffffffffffffffffffffffffffffffffffff82169050919050565b600061084a8261081f565b9050919050565b61085a8161083f565b82525050565b60006020820190506108756000830184610851565b92915050565b600082825260208201905092915050565b60005b838110156108aa57808201518184015260208101905061088f565b60008484015250505050565b6000601f19601f8301169050919050565b60006108d2826104fd565b6108dc818561087b565b93506108ec81856020860161088c565b6108f5816108b6565b840191505092915050565b6000602082019050818103600083015261091a81846108c7565b905092915050565b60006bffffffffffffffffffffffff82169050919050565b600061095561095061094b84610922565b610625565b61061b565b9050919050565b6109658161093a565b82525050565b6109748161061b565b82525050565b600060408201905061098f600083018561095c565b61099c602083018461096b565b9392505050565b7f4e487b7100000000000000000000000000000000000000000000000000000000600052605160045260246000fd5b613a93806109e16000396000f3fe60806040526004361061014b5760003560e01c80638da5cb5b116100b6578063c87b56dd1161006f578063c87b56dd1461048d578063d082e381146104ca578063e9605544146104f5578063e985e9c514610525578063f2fde38b14610562578063fdbda0ec1461058b5761014b565b80638da5cb5b1461039157806395d89b41146103bc578063a22cb465146103e7578063b88d4fde14610410578063c002d23d14610439578063c0d0f142146104645761014b565b806342842e0e1161010857806342842e0e1461028557806351cff8d9146102ae5780635944c753146102d75780636352211e1461030057806370a082311461033d578063715018a61461037a5761014b565b806301ffc9a71461015057806306fdde031461018d578063081812fc146101b8578063095ea7b3146101f557806323b872dd1461021e5780632a55205a14610247575b600080fd5b34801561015c57600080fd5b50610177600480360381019061017291906128ff565b6105c8565b6040516101849190612947565b60405180910390f35b34801561019957600080fd5b506101a26105da565b6040516101af91906129f2565b60405180910390f35b3480156101c457600080fd5b506101df60048036038101906101da9190612a4a565b61066c565b6040516101ec9190612ab8565b60405180910390f35b34801561020157600080fd5b5061021c60048036038101906102179190612aff565b610688565b005b34801561022a57600080fd5b5061024560048036038101906102409190612b3f565b61069e565b005b34801561025357600080fd5b5061026e60048036038101906102699190612b92565b6107a0565b60405161027c929190612be1565b60405180910390f35b34801561029157600080fd5b506102ac60048036038101906102a79190612b3f565b6108d0565b005b3480156102ba57600080fd5b506102d560048036038101906102d09190612c48565b6108f0565b005b3480156102e357600080fd5b506102fe60048036038101906102f99190612cb9565b610a03565b005b34801561030c57600080fd5b5061032760048036038101906103229190612a4a565b610a1b565b6040516103349190612ab8565b60405180910390f35b34801561034957600080fd5b50610364600480360381019061035f9190612d0c565b610a2d565b6040516103719190612d39565b60405180910390f35b34801561038657600080fd5b5061038f610ae7565b005b34801561039d57600080fd5b506103a6610afb565b6040516103b39190612ab8565b60405180910390f35b3480156103c857600080fd5b506103d1610b25565b6040516103de91906129f2565b60405180910390f35b3480156103f357600080fd5b5061040e60048036038101906104099190612d80565b610bb7565b005b34801561041c57600080fd5b5061043760048036038101906104329190612ef5565b610bcd565b005b34801561044557600080fd5b5061044e610bf2565b60405161045b9190612d39565b60405180910390f35b34801561047057600080fd5b5061048b60048036038101906104869190612f78565b610bfd565b005b34801561049957600080fd5b506104b460048036038101906104af9190612a4a565b610d97565b6040516104c191906129f2565b60405180910390f35b3480156104d657600080fd5b506104df610eaa565b6040516104ec9190612d39565b60405180910390f35b61050f600480360381019061050a9190613059565b610eb0565b60405161051c9190612d39565b60405180910390f35b34801561053157600080fd5b5061054c600480360381019061054791906130d1565b61102e565b6040516105599190612947565b60405180910390f35b34801561056e57600080fd5b5061058960048036038101906105849190612d0c565b6110c2565b005b34801561059757600080fd5b506105b260048036038101906105ad9190612a4a565b611148565b6040516105bf91906129f2565b60405180910390f35b60006105d382611209565b9050919050565b6060600080546105e990613140565b80601f016020809104026020016040519081016040528092919081815260200182805461061590613140565b80156106625780601f1061063757610100808354040283529160200191610662565b820191906000526020600020905b81548152906001019060200180831161064557829003601f168201915b5050505050905090565b600061067782611283565b506106818261130b565b9050919050565b61069a8282610695611348565b611350565b5050565b600073ffffffffffffffffffffffffffffffffffffffff168273ffffffffffffffffffffffffffffffffffffffff16036107105760006040517f64a0ae920000000000000000000000000000000000000000000000000000000081526004016107079190612ab8565b60405180910390fd5b6000610724838361071f611348565b611362565b90508373ffffffffffffffffffffffffffffffffffffffff168173ffffffffffffffffffffffffffffffffffffffff161461079a578382826040517f64283d7b00000000000000000000000000000000000000000000000000000000815260040161079193929190613171565b60405180910390fd5b50505050565b600080600060086000868152602001908152602001600020905060008160000160009054906101000a900473ffffffffffffffffffffffffffffffffffffffff16905060008260000160149054906101000a90046bffffffffffffffffffffffff169050600073ffffffffffffffffffffffffffffffffffffffff168273ffffffffffffffffffffffffffffffffffffffff160361088157600760000160009054906101000a900473ffffffffffffffffffffffffffffffffffffffff169150600760000160149054906101000a90046bffffffffffffffffffffffff1690505b600061088b61157c565b6bffffffffffffffffffffffff16826bffffffffffffffffffffffff16886108b391906131d7565b6108bd9190613248565b9050828195509550505050509250929050565b6108eb83838360405180602001604052806000815250610bcd565b505050565b6108f8611586565b600073ffffffffffffffffffffffffffffffffffffffff168173ffffffffffffffffffffffffffffffffffffffff1603610967576040517f08c379a000000000000000000000000000000000000000000000000000000000815260040161095e906132c5565b60405180910390fd5b6109b96040518060400160405280601b81526020017f2573204554482072657475726e656420696e746f206f776e65722e0000000000815250670de0b6b3a7640000476109b49190613248565b61160d565b8073ffffffffffffffffffffffffffffffffffffffff166108fc479081150290604051600060405180830381858888f193505050501580156109ff573d6000803e3d6000fd5b5050565b610a0b611586565b610a168383836116a9565b505050565b6000610a2682611283565b9050919050565b60008073ffffffffffffffffffffffffffffffffffffffff168273ffffffffffffffffffffffffffffffffffffffff1603610aa05760006040517f89c62b64000000000000000000000000000000000000000000000000000000008152600401610a979190612ab8565b60405180910390fd5b600360008373ffffffffffffffffffffffffffffffffffffffff1673ffffffffffffffffffffffffffffffffffffffff168152602001908152602001600020549050919050565b610aef611586565b610af96000611861565b565b6000600960009054906101000a900473ffffffffffffffffffffffffffffffffffffffff16905090565b606060018054610b3490613140565b80601f0160208091040260200160405190810160405280929190818152602001828054610b6090613140565b8015610bad5780601f10610b8257610100808354040283529160200191610bad565b820191906000526020600020905b815481529060010190602001808311610b9057829003601f168201915b5050505050905090565b610bc9610bc2611348565b8383611927565b5050565b610bd884848461069e565b610bec610be3611348565b85858585611a96565b50505050565b662386f26fc1000081565b3373ffffffffffffffffffffffffffffffffffffffff16610c1d83610a1b565b73ffffffffffffffffffffffffffffffffffffffff1614610c73576040517f08c379a0000000000000000000000000000000000000000000000000000000008152600401610c6a90613331565b60405180910390fd5b600073ffffffffffffffffffffffffffffffffffffffff168173ffffffffffffffffffffffffffffffffffffffff1603610ce2576040517f08c379a0000000000000000000000000000000000000000000000000000000008152600401610cd99061339d565b60405180910390fd5b610ced338284611c47565b8073ffffffffffffffffffffffffffffffffffffffff163373ffffffffffffffffffffffffffffffffffffffff167f0ed3c13c9507b6eb868d7f4aaee3d9ab32ef963f8ad013fe7705ef59e303e98a84604051610d4a9190612d39565b60405180910390a3610d936040518060400160405280601881526020017f2573207472616e73666572656420257320696e746f2025730000000000000000815250338484611db4565b5050565b6060610da282611283565b506000600660008481526020019081526020016000208054610dc390613140565b80601f0160208091040260200160405190810160405280929190818152602001828054610def90613140565b8015610e3c5780601f10610e1157610100808354040283529160200191610e3c565b820191906000526020600020905b815481529060010190602001808311610e1f57829003601f168201915b505050505090506000610e4d611e56565b90506000815103610e62578192505050610ea5565b600082511115610e97578082604051602001610e7f9291906133f9565b60405160208183030381529060405292505050610ea5565b610ea084611e6d565b925050505b919050565b600a5481565b6000662386f26fc100003414610efb576040517f08c379a0000000000000000000000000000000000000000000000000000000008152600401610ef290613469565b60405180910390fd5b6000825111610f3f576040517f08c379a0000000000000000000000000000000000000000000000000000000008152600401610f36906134d5565b60405180910390fd5b6000600a549050610f503382611ed6565b610f5a8185611ef4565b82600b60008381526020019081526020016000209081610f7a91906136a1565b50600a6000815480929190610f8e90613773565b91905055503373ffffffffffffffffffffffffffffffffffffffff167fe7cd4ce7f2a465edc730269a1305e8a48bad821e8fb7e152ec413829c01a53c48285604051610fdb9291906137bb565b60405180910390a26110246040518060400160405280601d81526020017f6c6f672d2d2d2d25732773202573206d696e74656420696e746f202573000000815250338386611f50565b8091505092915050565b6000600560008473ffffffffffffffffffffffffffffffffffffffff1673ffffffffffffffffffffffffffffffffffffffff16815260200190815260200160002060008373ffffffffffffffffffffffffffffffffffffffff1673ffffffffffffffffffffffffffffffffffffffff16815260200190815260200160002060009054906101000a900460ff16905092915050565b6110ca611586565b600073ffffffffffffffffffffffffffffffffffffffff168173ffffffffffffffffffffffffffffffffffffffff160361113c5760006040517f1e4fbdf70000000000000000000000000000000000000000000000000000000081526004016111339190612ab8565b60405180910390fd5b61114581611861565b50565b600b602052806000526040600020600091509050805461116790613140565b80601f016020809104026020016040519081016040528092919081815260200182805461119390613140565b80156111e05780601f106111b5576101008083540402835291602001916111e0565b820191906000526020600020905b8154815290600101906020018083116111c357829003601f168201915b505050505081565b60006a636f6e736f6c652e6c6f679050600080835160208501845afa505050565b60007f2a55205a000000000000000000000000000000000000000000000000000000007bffffffffffffffffffffffffffffffffffffffffffffffffffffffff1916827bffffffffffffffffffffffffffffffffffffffffffffffffffffffff1916148061127c575061127b82611ff2565b5b9050919050565b60008061128f83612053565b9050600073ffffffffffffffffffffffffffffffffffffffff168173ffffffffffffffffffffffffffffffffffffffff160361130257826040517f7e2732890000000000000000000000000000000000000000000000000000000081526004016112f99190612d39565b60405180910390fd5b80915050919050565b60006004600083815260200190815260200160002060009054906101000a900473ffffffffffffffffffffffffffffffffffffffff169050919050565b600033905090565b61135d8383836001612090565b505050565b60008061136e84612053565b9050600073ffffffffffffffffffffffffffffffffffffffff168373ffffffffffffffffffffffffffffffffffffffff16146113b0576113af818486612255565b5b600073ffffffffffffffffffffffffffffffffffffffff168173ffffffffffffffffffffffffffffffffffffffff1614611441576113f2600085600080612090565b6001600360008373ffffffffffffffffffffffffffffffffffffffff1673ffffffffffffffffffffffffffffffffffffffff168152602001908152602001600020600082825403925050819055505b600073ffffffffffffffffffffffffffffffffffffffff168573ffffffffffffffffffffffffffffffffffffffff16146114c4576001600360008773ffffffffffffffffffffffffffffffffffffffff1673ffffffffffffffffffffffffffffffffffffffff168152602001908152602001600020600082825401925050819055505b846002600086815260200190815260200160002060006101000a81548173ffffffffffffffffffffffffffffffffffffffff021916908373ffffffffffffffffffffffffffffffffffffffff160217905550838573ffffffffffffffffffffffffffffffffffffffff168273ffffffffffffffffffffffffffffffffffffffff167fddf252ad1be2c89b69c2b068fc378daa952ba7f163c4a11628f55a4df523b3ef60405160405180910390a4809150509392505050565b6000612710905090565b61158e611348565b73ffffffffffffffffffffffffffffffffffffffff166115ac610afb565b73ffffffffffffffffffffffffffffffffffffffff161461160b576115cf611348565b6040517f118cdaa70000000000000000000000000000000000000000000000000000000081526004016116029190612ab8565b60405180910390fd5b565b6116a582826040516024016116239291906137eb565b6040516020818303038152906040527fb60e72cc000000000000000000000000000000000000000000000000000000007bffffffffffffffffffffffffffffffffffffffffffffffffffffffff19166020820180517bffffffffffffffffffffffffffffffffffffffffffffffffffffffff8381831617835250505050612319565b5050565b60006116b361157c565b6bffffffffffffffffffffffff16905080826bffffffffffffffffffffffff16111561171a578382826040517fdfd1fc1b0000000000000000000000000000000000000000000000000000000081526004016117119392919061384c565b60405180910390fd5b600073ffffffffffffffffffffffffffffffffffffffff168373ffffffffffffffffffffffffffffffffffffffff160361178e578360006040517f969f0852000000000000000000000000000000000000000000000000000000008152600401611785929190613883565b60405180910390fd5b60405180604001604052808473ffffffffffffffffffffffffffffffffffffffff168152602001836bffffffffffffffffffffffff168152506008600086815260200190815260200160002060008201518160000160006101000a81548173ffffffffffffffffffffffffffffffffffffffff021916908373ffffffffffffffffffffffffffffffffffffffff16021790555060208201518160000160146101000a8154816bffffffffffffffffffffffff02191690836bffffffffffffffffffffffff16021790555090505050505050565b6000600960009054906101000a900473ffffffffffffffffffffffffffffffffffffffff16905081600960006101000a81548173ffffffffffffffffffffffffffffffffffffffff021916908373ffffffffffffffffffffffffffffffffffffffff1602179055508173ffffffffffffffffffffffffffffffffffffffff168173ffffffffffffffffffffffffffffffffffffffff167f8be0079c531659141344cd1fd0a4f28419497f9722a3daafe3b4186f6b6457e060405160405180910390a35050565b600073ffffffffffffffffffffffffffffffffffffffff168273ffffffffffffffffffffffffffffffffffffffff160361199857816040517f5b08ba1800000000000000000000000000000000000000000000000000000000815260040161198f9190612ab8565b60405180910390fd5b80600560008573ffffffffffffffffffffffffffffffffffffffff1673ffffffffffffffffffffffffffffffffffffffff16815260200190815260200160002060008473ffffffffffffffffffffffffffffffffffffffff1673ffffffffffffffffffffffffffffffffffffffff16815260200190815260200160002060006101000a81548160ff0219169083151502179055508173ffffffffffffffffffffffffffffffffffffffff168373ffffffffffffffffffffffffffffffffffffffff167f17307eab39ab6107e8899845ad3d59bd9653f200f220920489ca2b5937696c3183604051611a899190612947565b60405180910390a3505050565b60008373ffffffffffffffffffffffffffffffffffffffff163b1115611c40578273ffffffffffffffffffffffffffffffffffffffff1663150b7a02868685856040518563ffffffff1660e01b8152600401611af59493929190613901565b6020604051808303816000875af1925050508015611b3157506040513d601f19601f82011682018060405250810190611b2e9190613962565b60015b611bb5573d8060008114611b61576040519150601f19603f3d011682016040523d82523d6000602084013e611b66565b606091505b506000815103611bad57836040517f64a0ae92000000000000000000000000000000000000000000000000000000008152600401611ba49190612ab8565b60405180910390fd5b805160208201fd5b63150b7a0260e01b7bffffffffffffffffffffffffffffffffffffffffffffffffffffffff1916817bffffffffffffffffffffffffffffffffffffffffffffffffffffffff191614611c3e57836040517f64a0ae92000000000000000000000000000000000000000000000000000000008152600401611c359190612ab8565b60405180910390fd5b505b5050505050565b600073ffffffffffffffffffffffffffffffffffffffff168273ffffffffffffffffffffffffffffffffffffffff1603611cb95760006040517f64a0ae92000000000000000000000000000000000000000000000000000000008152600401611cb09190612ab8565b60405180910390fd5b6000611cc783836000611362565b9050600073ffffffffffffffffffffffffffffffffffffffff168173ffffffffffffffffffffffffffffffffffffffff1603611d3a57816040517f7e273289000000000000000000000000000000000000000000000000000000008152600401611d319190612d39565b60405180910390fd5b8373ffffffffffffffffffffffffffffffffffffffff168173ffffffffffffffffffffffffffffffffffffffff1614611dae578382826040517f64283d7b000000000000000000000000000000000000000000000000000000008152600401611da593929190613171565b60405180910390fd5b50505050565b611e5084848484604051602401611dce949392919061398f565b6040516020818303038152906040527f63fb8bc5000000000000000000000000000000000000000000000000000000007bffffffffffffffffffffffffffffffffffffffffffffffffffffffff19166020820180517bffffffffffffffffffffffffffffffffffffffffffffffffffffffff8381831617835250505050612319565b50505050565b606060405180602001604052806000815250905090565b6060611e7882611283565b506000611e83611e56565b90506000815111611ea35760405180602001604052806000815250611ece565b80611ead84612333565b604051602001611ebe9291906133f9565b6040516020818303038152906040525b915050919050565b611ef0828260405180602001604052806000815250612401565b5050565b80600660008481526020019081526020016000209081611f1491906136a1565b507ff8e1a15aba9398e019f0b49df1a4fde98ee17ae345cb5f6b5e2c27f5033e8ce782604051611f449190612d39565b60405180910390a15050565b611fec84848484604051602401611f6a94939291906139db565b6040516020818303038152906040527f5a477632000000000000000000000000000000000000000000000000000000007bffffffffffffffffffffffffffffffffffffffffffffffffffffffff19166020820180517bffffffffffffffffffffffffffffffffffffffffffffffffffffffff8381831617835250505050612319565b50505050565b6000634906490660e01b7bffffffffffffffffffffffffffffffffffffffffffffffffffffffff1916827bffffffffffffffffffffffffffffffffffffffffffffffffffffffff1916148061204c575061204b82612425565b5b9050919050565b60006002600083815260200190815260200160002060009054906101000a900473ffffffffffffffffffffffffffffffffffffffff169050919050565b80806120c95750600073ffffffffffffffffffffffffffffffffffffffff168273ffffffffffffffffffffffffffffffffffffffff1614155b156121fd5760006120d984611283565b9050600073ffffffffffffffffffffffffffffffffffffffff168373ffffffffffffffffffffffffffffffffffffffff161415801561214457508273ffffffffffffffffffffffffffffffffffffffff168173ffffffffffffffffffffffffffffffffffffffff1614155b80156121575750612155818461102e565b155b1561219957826040517fa9fbf51f0000000000000000000000000000000000000000000000000000000081526004016121909190612ab8565b60405180910390fd5b81156121fb57838573ffffffffffffffffffffffffffffffffffffffff168273ffffffffffffffffffffffffffffffffffffffff167f8c5be1e5ebec7d5bd14f71427d1e84f3dd0314c0f7b2291e5b200ac8c7c3b92560405160405180910390a45b505b836004600085815260200190815260200160002060006101000a81548173ffffffffffffffffffffffffffffffffffffffff021916908373ffffffffffffffffffffffffffffffffffffffff16021790555050505050565b612260838383612507565b61231457600073ffffffffffffffffffffffffffffffffffffffff168373ffffffffffffffffffffffffffffffffffffffff16036122d557806040517f7e2732890000000000000000000000000000000000000000000000000000000081526004016122cc9190612d39565b60405180910390fd5b81816040517f177e802f00000000000000000000000000000000000000000000000000000000815260040161230b929190612be1565b60405180910390fd5b505050565b612330816123286111e86125c8565b63ffffffff16565b50565b606060006001612342846125d3565b01905060008167ffffffffffffffff81111561236157612360612dca565b5b6040519080825280601f01601f1916602001820160405280156123935781602001600182028036833780820191505090505b509050600082602083010190505b6001156123f6578080600190039150507f3031323334353637383961626364656600000000000000000000000000000000600a86061a8153600a85816123ea576123e9613219565b5b049450600085036123a1575b819350505050919050565b61240b8383612726565b612420612416611348565b6000858585611a96565b505050565b60007f80ac58cd000000000000000000000000000000000000000000000000000000007bffffffffffffffffffffffffffffffffffffffffffffffffffffffff1916827bffffffffffffffffffffffffffffffffffffffffffffffffffffffff191614806124f057507f5b5e139f000000000000000000000000000000000000000000000000000000007bffffffffffffffffffffffffffffffffffffffffffffffffffffffff1916827bffffffffffffffffffffffffffffffffffffffffffffffffffffffff1916145b8061250057506124ff8261281f565b5b9050919050565b60008073ffffffffffffffffffffffffffffffffffffffff168373ffffffffffffffffffffffffffffffffffffffff16141580156125bf57508273ffffffffffffffffffffffffffffffffffffffff168473ffffffffffffffffffffffffffffffffffffffff161480612580575061257f848461102e565b5b806125be57508273ffffffffffffffffffffffffffffffffffffffff166125a68361130b565b73ffffffffffffffffffffffffffffffffffffffff16145b5b90509392505050565b612889819050919050565b600080600090507a184f03e93ff9f4daa797ed6e38ed64bf6a1f0100000000000000008310612631577a184f03e93ff9f4daa797ed6e38ed64bf6a1f010000000000000000838161262757612626613219565b5b0492506040810190505b6d04ee2d6d415b85acef8100000000831061266e576d04ee2d6d415b85acef8100000000838161266457612663613219565b5b0492506020810190505b662386f26fc10000831061269d57662386f26fc10000838161269357612692613219565b5b0492506010810190505b6305f5e10083106126c6576305f5e10083816126bc576126bb613219565b5b0492506008810190505b61271083106126eb5761271083816126e1576126e0613219565b5b0492506004810190505b6064831061270e576064838161270457612703613219565b5b0492506002810190505b600a831061271d576001810190505b80915050919050565b600073ffffffffffffffffffffffffffffffffffffffff168273ffffffffffffffffffffffffffffffffffffffff16036127985760006040517f64a0ae9200000000000000000000000000000000000000000000000000000000815260040161278f9190612ab8565b60405180910390fd5b60006127a683836000611362565b9050600073ffffffffffffffffffffffffffffffffffffffff168173ffffffffffffffffffffffffffffffffffffffff161461281a5760006040517f73c6ac6e0000000000000000000000000000000000000000000000000000000081526004016128119190612ab8565b60405180910390fd5b505050565b60007f01ffc9a7000000000000000000000000000000000000000000000000000000007bffffffffffffffffffffffffffffffffffffffffffffffffffffffff1916827bffffffffffffffffffffffffffffffffffffffffffffffffffffffff1916149050919050565b612891613a2e565b565b6000604051905090565b600080fd5b600080fd5b60007fffffffff0000000000000000000000000000000000000000000000000000000082169050919050565b6128dc816128a7565b81146128e757600080fd5b50565b6000813590506128f9816128d3565b92915050565b6000602082840312156129155761291461289d565b5b6000612923848285016128ea565b91505092915050565b60008115159050919050565b6129418161292c565b82525050565b600060208201905061295c6000830184612938565b92915050565b600081519050919050565b600082825260208201905092915050565b60005b8381101561299c578082015181840152602081019050612981565b60008484015250505050565b6000601f19601f8301169050919050565b60006129c482612962565b6129ce818561296d565b93506129de81856020860161297e565b6129e7816129a8565b840191505092915050565b60006020820190508181036000830152612a0c81846129b9565b905092915050565b6000819050919050565b612a2781612a14565b8114612a3257600080fd5b50565b600081359050612a4481612a1e565b92915050565b600060208284031215612a6057612a5f61289d565b5b6000612a6e84828501612a35565b91505092915050565b600073ffffffffffffffffffffffffffffffffffffffff82169050919050565b6000612aa282612a77565b9050919050565b612ab281612a97565b82525050565b6000602082019050612acd6000830184612aa9565b92915050565b612adc81612a97565b8114612ae757600080fd5b50565b600081359050612af981612ad3565b92915050565b60008060408385031215612b1657612b1561289d565b5b6000612b2485828601612aea565b9250506020612b3585828601612a35565b9150509250929050565b600080600060608486031215612b5857612b5761289d565b5b6000612b6686828701612aea565b9350506020612b7786828701612aea565b9250506040612b8886828701612a35565b9150509250925092565b60008060408385031215612ba957612ba861289d565b5b6000612bb785828601612a35565b9250506020612bc885828601612a35565b9150509250929050565b612bdb81612a14565b82525050565b6000604082019050612bf66000830185612aa9565b612c036020830184612bd2565b9392505050565b6000612c1582612a77565b9050919050565b612c2581612c0a565b8114612c3057600080fd5b50565b600081359050612c4281612c1c565b92915050565b600060208284031215612c5e57612c5d61289d565b5b6000612c6c84828501612c33565b91505092915050565b60006bffffffffffffffffffffffff82169050919050565b612c9681612c75565b8114612ca157600080fd5b50565b600081359050612cb381612c8d565b92915050565b600080600060608486031215612cd257612cd161289d565b5b6000612ce086828701612a35565b9350506020612cf186828701612aea565b9250506040612d0286828701612ca4565b9150509250925092565b600060208284031215612d2257612d2161289d565b5b6000612d3084828501612aea565b91505092915050565b6000602082019050612d4e6000830184612bd2565b92915050565b612d5d8161292c565b8114612d6857600080fd5b50565b600081359050612d7a81612d54565b92915050565b60008060408385031215612d9757612d9661289d565b5b6000612da585828601612aea565b9250506020612db685828601612d6b565b9150509250929050565b600080fd5b600080fd5b7f4e487b7100000000000000000000000000000000000000000000000000000000600052604160045260246000fd5b612e02826129a8565b810181811067ffffffffffffffff82111715612e2157612e20612dca565b5b80604052505050565b6000612e34612893565b9050612e408282612df9565b919050565b600067ffffffffffffffff821115612e6057612e5f612dca565b5b612e69826129a8565b9050602081019050919050565b82818337600083830152505050565b6000612e98612e9384612e45565b612e2a565b905082815260208101848484011115612eb457612eb3612dc5565b5b612ebf848285612e76565b509392505050565b600082601f830112612edc57612edb612dc0565b5b8135612eec848260208601612e85565b91505092915050565b60008060008060808587031215612f0f57612f0e61289d565b5b6000612f1d87828801612aea565b9450506020612f2e87828801612aea565b9350506040612f3f87828801612a35565b925050606085013567ffffffffffffffff811115612f6057612f5f6128a2565b5b612f6c87828801612ec7565b91505092959194509250565b60008060408385031215612f8f57612f8e61289d565b5b6000612f9d85828601612a35565b9250506020612fae85828601612aea565b9150509250929050565b600067ffffffffffffffff821115612fd357612fd2612dca565b5b612fdc826129a8565b9050602081019050919050565b6000612ffc612ff784612fb8565b612e2a565b90508281526020810184848401111561301857613017612dc5565b5b613023848285612e76565b509392505050565b600082601f8301126130405761303f612dc0565b5b8135613050848260208601612fe9565b91505092915050565b600080604083850312156130705761306f61289d565b5b600083013567ffffffffffffffff81111561308e5761308d6128a2565b5b61309a8582860161302b565b925050602083013567ffffffffffffffff8111156130bb576130ba6128a2565b5b6130c78582860161302b565b9150509250929050565b600080604083850312156130e8576130e761289d565b5b60006130f685828601612aea565b925050602061310785828601612aea565b9150509250929050565b7f4e487b7100000000000000000000000000000000000000000000000000000000600052602260045260246000fd5b6000600282049050600182168061315857607f821691505b60208210810361316b5761316a613111565b5b50919050565b60006060820190506131866000830186612aa9565b6131936020830185612bd2565b6131a06040830184612aa9565b949350505050565b7f4e487b7100000000000000000000000000000000000000000000000000000000600052601160045260246000fd5b60006131e282612a14565b91506131ed83612a14565b92508282026131fb81612a14565b91508282048414831517613212576132116131a8565b5b5092915050565b7f4e487b7100000000000000000000000000000000000000000000000000000000600052601260045260246000fd5b600061325382612a14565b915061325e83612a14565b92508261326e5761326d613219565b5b828204905092915050565b7f496e76616c696420616464726573730000000000000000000000000000000000600082015250565b60006132af600f8361296d565b91506132ba82613279565b602082019050919050565b600060208201905081810360008301526132de816132a2565b9050919050565b7f4e6f7420746f6b656e206f776e65720000000000000000000000000000000000600082015250565b600061331b600f8361296d565b9150613326826132e5565b602082019050919050565b6000602082019050818103600083015261334a8161330e565b9050919050565b7f496e76616c696420726563697069656e74000000000000000000000000000000600082015250565b600061338760118361296d565b915061339282613351565b602082019050919050565b600060208201905081810360008301526133b68161337a565b9050919050565b600081905092915050565b60006133d382612962565b6133dd81856133bd565b93506133ed81856020860161297e565b80840191505092915050565b600061340582856133c8565b915061341182846133c8565b91508190509392505050565b7f496e636f7272656374204554482073656e740000000000000000000000000000600082015250565b600061345360128361296d565b915061345e8261341d565b602082019050919050565b6000602082019050818103600083015261348281613446565b9050919050565b7f436f6c6c656374696f6e206e616d652072657175697265640000000000000000600082015250565b60006134bf60188361296d565b91506134ca82613489565b602082019050919050565b600060208201905081810360008301526134ee816134b2565b9050919050565b60008190508160005260206000209050919050565b60006020601f8301049050919050565b600082821b905092915050565b6000600883026135577fffffffffffffffffffffffffffffffffffffffffffffffffffffffffffffffff8261351a565b613561868361351a565b95508019841693508086168417925050509392505050565b6000819050919050565b600061359e61359961359484612a14565b613579565b612a14565b9050919050565b6000819050919050565b6135b883613583565b6135cc6135c4826135a5565b848454613527565b825550505050565b600090565b6135e16135d4565b6135ec8184846135af565b505050565b5b81811015613610576136056000826135d9565b6001810190506135f2565b5050565b601f82111561365557613626816134f5565b61362f8461350a565b8101602085101561363e578190505b61365261364a8561350a565b8301826135f1565b50505b505050565b600082821c905092915050565b60006136786000198460080261365a565b1980831691505092915050565b60006136918383613667565b9150826002028217905092915050565b6136aa82612962565b67ffffffffffffffff8111156136c3576136c2612dca565b5b6136cd8254613140565b6136d8828285613614565b600060209050601f83116001811461370b57600084156136f9578287015190505b6137038582613685565b86555061376b565b601f198416613719866134f5565b60005b828110156137415784890151825560018201915060208501945060208101905061371c565b8683101561375e578489015161375a601f891682613667565b8355505b6001600288020188555050505b505050505050565b600061377e82612a14565b91507fffffffffffffffffffffffffffffffffffffffffffffffffffffffffffffffff82036137b0576137af6131a8565b5b600182019050919050565b60006040820190506137d06000830185612bd2565b81810360208301526137e281846129b9565b90509392505050565b6000604082019050818103600083015261380581856129b9565b90506138146020830184612bd2565b9392505050565b600061383661383161382c84612c75565b613579565b612a14565b9050919050565b6138468161381b565b82525050565b60006060820190506138616000830186612bd2565b61386e602083018561383d565b61387b6040830184612bd2565b949350505050565b60006040820190506138986000830185612bd2565b6138a56020830184612aa9565b9392505050565b600081519050919050565b600082825260208201905092915050565b60006138d3826138ac565b6138dd81856138b7565b93506138ed81856020860161297e565b6138f6816129a8565b840191505092915050565b60006080820190506139166000830187612aa9565b6139236020830186612aa9565b6139306040830185612bd2565b818103606083015261394281846138c8565b905095945050505050565b60008151905061395c816128d3565b92915050565b6000602082840312156139785761397761289d565b5b60006139868482850161394d565b91505092915050565b600060808201905081810360008301526139a981876129b9565b90506139b86020830186612aa9565b6139c56040830185612bd2565b6139d26060830184612aa9565b95945050505050565b600060808201905081810360008301526139f581876129b9565b9050613a046020830186612aa9565b613a116040830185612bd2565b8181036060830152613a2381846129b9565b905095945050505050565b7f4e487b7100000000000000000000000000000000000000000000000000000000600052605160045260246000fdfea264697066735822122062e37f72851bb7602a807005f037478af2d824b58a1c64e64e26ba9473d562df64736f6c634300081c0033",
  "linkReferences": {},
  "deployedLinkReferences": {}
}